:020000040800F2
:10000000B81D00204501000805210008BD130008A7
:10001000012100087D0800084D30000800000000A4
:10002000000000000000000000000000C9280008D7
:100030008D09000800000000AB010008B529000888
:100040005F0100085F0100085F0100085F01000810
:100050005F0100085F0100085F0100085F01000800
:100060005F0100085F0100085F0100085F010008F0
:100070005F0100085F0100085F0100085F010008E0
:100080005F0100085F0100085F0100085F010008D0
:100090005F0100085F0100085F0100085F010008C0
:1000A0005F0100085F0100085F0100085F010008B0
:1000B0005F0100085F0100085F0100085F010008A0
:1000C0005F0100085F0100085F0100085F01000890
:1000D0005F0100085F0100085F0100085F01000880
:1000E0005F0100085F0100085F0100085F01000870
:1000F0005F0100085F0100085F0100085F01000860
:100100005F0100085F0100085F0100085F0100084F
:100110005F0100085F0100085F0100085F0100083F
:100120005F0100085F0100085F0100085F0100082F
:10013000DFF80CD000F046FB00480047654000089F
:10014000B81D00200648804706480047FEE7FEE746
:10015000FEE7FEE7FEE7FEE7FEE7FEE7FEE7FEE777
:10016000DD29000831010008EFF3108072B67047F6
:1001700080F3108870471D484FF0FF010170002088
:1001800080F309881A48012101701A484FF0805104
:10019000016062B6FEE717484FF08051016070477A
:1001A00014484FF080510160704772B6EFF3098038
:1001B00028B1203880E8F00F0F490968086000B5C1
:1001C0000E4880475DF804EB0D480E490A7802702E
:1001D00009480D490A680260106890E8F00F203065
:1001E00080F309884EF0040E62B6704722ED00E0FD
:1001F0003A01002004ED00E04001002099210008B0
:100200002F0100203001002048010020D2B201E07F
:1002100000F8012B491EFBD270470022F6E710B50B
:1002200013460A4604461946FFF7F0FF204610BD64
:10023000421C10F8011B0029FBD1801A7047F0B452
:1002400080EA0102D40F4200B2EB410F02D2024613
:10025000084611464A0042D0C30DDDB2C1F3C75271
:10026000AD1A202D35DAC1F3160141F4000204B1B4
:100270005242C5F1200602FA06F12A411044B3EBBE
:10028000D05F23D0C4B1012DA0EBC35009DCF0BC7A
:100290004FF0004202EAC352DBB200F5000000F06A
:1002A00006BA400000F1807000EBC350A0F18070EE
:1002B00040EAD170490009E0490841EAC071A0EB69
:1002C000C35000F50000400800EBC350F0BC00F044
:1002D000E5B96142012202EB4101001BF6E7F0BCE7
:1002E000704781F00041AAE780F00040A7E780EA6C
:1002F000010210B502F00043400022D04A001FD096
:10030000010E01EB1261C0F35600C2F3560240F435
:10031000000042F40002A0FB022000047F39140414
:1003200000D0401C50EA124001D44000491EC2B225
:100330000C0604EBD010401C4008802A02D003E0D9
:10034000002010BD20F00100002900DA0020184331
:1003500010BD30B480EA010202F0004530F00042E6
:1003600021F0004013D090B1C30DD40DC2F316019B
:10037000C0F31600E41A41F4000140F400027D3499
:10038000914201D3641C00E04900002C02DA30BC29
:10039000002070474FF400000023914201D3891AD6
:1003A000034340084FEA4101F7D151B1914202D1D4
:1003B0004FF0004105E002D24FF0010101E06FF083
:1003C000010103EBC450284430BC00F067B92DE9AB
:1003D000FE4F81EA030404F0004421F00041009440
:1003E0004FF0000B23F0004350EA01045ED052EAC4
:1003F00003045BD0C3F30A54C1F30A552C44A4F29E
:10040000F3340194A0FB0254C1F3130141F48011B1
:10041000C3F3130343F4801301FB024400FB034EB8
:10042000840A970A44EA815447EA8357A4FB076881
:1004300002958D0A05FB07854FEA932C04FB0C54AB
:100440002705029D4FEA065847EA1637B5EB08051F
:100450006EEB070C870E920E47EA811742EA831271
:10046000A7FB0201B6EB0B0164EB00042B0D43EA82
:100470000C335E1844EB1C50DA465146E7FB020190
:10048000C5F313044FEA0B3343EA14534FEA043223
:10049000019C43EA0603A4F10C040294009CCDE9FC
:1004A00000B400F041F903B0BDE8F08F0020014630
:1004B000F9E72DE9F04D81EA030404F0004B21F047
:1004C000004514464FF0000A23F0004150EA0502AF
:1004D00020D054EA01021DD0C5F30A570246C5F3E5
:1004E0001303C1F31300C1F30A5640F4801543F41B
:1004F0008013A7EB0608101BD64608F2FD3873EBF5
:10050000050002D308F1010801E092185B41B8F13F
:10051000000F03DA00200146BDE8F08D00204FF403
:100520008011064684460EE0171B73EB050705D3C2
:10053000121B63EB050306434CEA010C49084FEA22
:10054000300092185B4150EA0107EDD152EA0300F6
:1005500012D082EA040083EA0501084305D0101B8B
:10056000AB4106D20122002306E000224FF00043F7
:1005700002E06FF0010253101AEB06004CEB085139
:1005800010EB0A0041EB0B01BDE8F04D00F0BDB8E7
:10059000C10F80EAE0700844CA079623002100F0EA
:1005A00086B800F0004220F00040C10DC0F31600F4
:1005B00040F400007F2901DA00207047962903DC0F
:1005C000C1F19601C84001E096398840002AF4D074
:1005D0004042704720F00040C10DC0F3160040F4C7
:1005E00000007F2901DA00207047962903DCC1F161
:1005F0009601C840704796398840704700F0004225
:1006000030F000400AD0C10D01F56071C0F3160052
:1006100042EA0151C20840071143704700200146D9
:10062000704701F0004330B421F0004150EA01026C
:1006300006D00A0DA2F56072C1F31301002A02DC94
:1006400030BC00207047440F44EAC104C100E018E8
:1006500030BC00EBC25000F021B80000002801DBE4
:10066000C0F10040002901DBC1F100418142704727
:1006700030B50B46014600202022012409E021FA72
:1006800002F59D4205D303FA02F5491B04FA02F56F
:100690002844151EA2F10102F1DC30BD0029A8BFDB
:1006A0007047401C490008BF20F00100704710B49B
:1006B000B0FA80FC00FA0CF050EA010404BF10BC50
:1006C000704749B1CCF1200421FA04F411FA0CF17D
:1006D00018BF012121430843A3EB0C01CB1D4FEAB6
:1006E00000614FEA102042BF002010BC704700EBB1
:1006F000C35010440029A4BF10BC7047401C4900DF
:1007000008BF20F0010010BC704710B5141E73F133
:10071000000408DA401C41F1000192185B411A43C1
:1007200001D120F0010010BD2DE9F04D92469B460D
:1007300011B1B1FA81F202E0B0FA80F220329046B3
:1007400000F052F804460F4640EA0A0041EA0B0165
:1007500053465A46084313D0114653EA010019D0B4
:10076000C8F14002504600F04EF805460E4650468D
:100770005946424600F038F8084305D0012004E00D
:1007800020463946BDE8F08D0020054346EAE07674
:100790002C4337430A986305E40AA0EB08000022C3
:1007A000FD0A44EA47540A3002D500200146E9E731
:1007B000010510196941DDE9084500196941BDE8E5
:1007C000F04DA2E7064C074D06E0E06840F001035B
:1007D00094E8070098471034AC42F6D3FFF7ACFC1E
:1007E0008C7D0008AC7D0008202A04DB203A00FA4A
:1007F00002F1002070479140C2F1200320FA03F378
:10080000194390407047202A04DB203A21FA02F075
:100810000021704721FA02F3D040C2F1200291403A
:1008200008431946704770B58C1810F8015B15F035
:10083000070301D110F8013B2A1106D110F8012B52
:1008400003E010F8016B01F8016B5B1EF9D12B0777
:1008500005D40023521E0DD401F8013BFAE710F82D
:10086000013BCB1A921C03E013F8015B01F8015B1A
:10087000521EF9D5A142D8D3002070BD00BFFEE7BB
:1008800038B505460C460020009001F09BFE012281
:100890009102684601F0DCFD9DF80000A52801D01A
:1008A000012000E00020012C01D1012100E0002105
:1008B000084308B39DF80000A52806D1012C04D1F7
:1008C000C022E102104801F0C3FD00BF284602F03B
:1008D00031FF0028FAD0002001F022FFA52000906F
:1008E00001229102684601F0DBFDC0224FF4006155
:1008F000054801F0D5FD05E0C0224FF40061024833
:1009000001F0A6FD38BD00003800002038B50446CF
:100910004FF6FF71084601F0ADFB0120009006483C
:10092000008883B205480088523882B200215120E5
:1009300000F096FF38BD00002A00002028000020AB
:1009400070B504462546287A04490871098888B29A
:100950004FF6FF7101F08EFB70BD0000000000201B
:1009600070B5044625460849A8680860098888B219
:100970004FF6FF7101F07EFB03480079082802D191
:1009800000200149087170BD000000207047000080
:10099000F8B505462C46207BA0BB4FF6FF714CF204
:1009A000186001F067FB01200090E6886788F61B5D
:1009B000B3B2A6882788F61BB2B26188384600F029
:1009C0004FFF4CF218614FF4784001F053FB32486E
:1009D00001F05AFBE2886388D21AA2F1100606EBF6
:1009E000D67203EB620291B2A2882388D21AA2F1D6
:1009F000200707EBD77203EB620290B227A200F048
:100A0000D3FD33E0FFE74FF6FF71084601F032FBFC
:100A100001200090E6886788F61BB3B2A688278875
:100A2000F61BB2B26188384600F01AFF4FF6FF712C
:100A30004FF4784001F01EFB174801F025FBE288D7
:100A40006388D21AA2F1100606EBD67203EB62029B
:100A500091B2A2882388D21AA2F1200707EBD7729D
:100A600003EB620290B20DA200F09EFD4FF6FF7103
:100A70004FF4047001F0FEFA00200090E6886788C9
:100A8000F61BB3B2A6882788F61BB2B26188384637
:100A900000F0E6FEF8BD00000C000020C7E5C6C16E
:100AA00000000000F8B505462C46207BA0B921893E
:100AB00088B24FF6FF7101F0DDFA01200090E68860
:100AC0006788F61BB3B2A6882788F61BB2B2618886
:100AD000384600F0C5FE12E04FF6FF71084601F0FF
:100AE000C9FA01200090E6886788F61BB3B2A68891
:100AF0002788F61BB2B26188384600F0B1FE4FF687
:100B0000FF714FF4047001F0B5FA00200090E68800
:100B10006788F61BB3B2A6882788F61BB2B2618835
:100B2000384600F09DFEF8BD2DE9F84306463446F0
:100B3000207B80BB4FF6FF714CF2186001F09AFAEF
:100B400001200090E788B4F802C0A7EB0C07BBB205
:100B5000A788B4F800C0A7EB0C07BAB2618860465A
:100B600000F07EFE4CF218614FF4047001F082FA3E
:100B700000200090E788B4F802C0A7EB0C07BBB2D6
:100B8000A788B4F800C0A7EB0C07BAB2618860462A
:100B900000F066FE2FE0FFE74FF6FF71084601F018
:100BA00069FA01200090E788B4F802C0A7EB0C07AF
:100BB000BBB2A788B4F800C0A7EB0C07BAB2618833
:100BC000604600F04DFE4FF6FF714FF4047001F0E7
:100BD00051FA00200090E788B4F802C0A7EB0C0798
:100BE000BBB2A788B4F800C0A7EB0C07BAB2618803
:100BF000604600F035FE4FF6FF71002001F03AFA32
:100C0000A06809282FD2DFE800F0052F567DA4CB7D
:100C1000F5F3F2004FF6FF71002001F02BFAB4F863
:100C200006C0B4F80290ACEB090707EBD77C09EBE0
:100C30006C0C1FFA8CF3B4F806C0ACEB090808EB97
:100C4000D87C09EB6C0C1FFA8CF1B4F804C0ACF141
:100C5000140C1FFA8CF2B4F800C00CF1140C1FFA3B
:100C60008CF000F0ADFD77E101200090B4F806C0F3
:100C7000B4F80290ACEB090808EBD87C09EB6C0CDB
:100C80001FFA8CF3B4F806C0ACEB090707EBD77C6E
:100C900009EB6C0C1FFA8CF1B4F804C0ACF1140C25
:100CA0001FFA8CF2B4F800C00CF1140C1FFA8CF08F
:100CB00001F022F950E102200090B4F806C0B4F827
:100CC0000290ACEB090707EBD77C09EB6C0C1FFA21
:100CD0008CF3B4F806C0ACEB090808EBD87C09EB40
:100CE0006C0C1FFA8CF1B4F804C0ACF1140C1FFAB0
:100CF0008CF2B4F800C00CF1140C1FFA8CF001F067
:100D0000FBF829E103200090B4F806C0B4F8029083
:100D1000ACEB090707EBD77C09EB6C0C1FFA8CF3E3
:100D2000B4F806C0ACEB090808EBD87C09EB6C0CF6
:100D30001FFA8CF1B4F804C0ACF1140C1FFA8CF259
:100D4000B4F800C00CF1140C1FFA8CF001F0D4F8C8
:100D500002E104200090B4F806C0B4F80290ACEBB5
:100D6000090808EBD87C09EB6C0C1FFA8CF3B4F87B
:100D700006C0ACEB090707EBD77C09EB6C0C1FFA3C
:100D80008CF1B4F804C0ACF1140C1FFA8CF2B4F876
:100D900000C00CF1140C1FFA8CF001F0ADF8DBE090
:100DA00008200090B4F806C0B4F80290ACEB090734
:100DB00007EBD77C09EB6C0C1FFA8CF3B4F806C078
:100DC000ACEB090808EBD87C09EB6C0C1FFA8CF132
:100DD000B4F804C0ACF1140C1FFA8CF2B4F800C0E3
:100DE0000CF1140C1FFA8CF001F086F8B4E072E0FC
:100DF00027E0FFE70A200090B4F806C0B4F802909C
:100E0000ACEB090808EBD87C09EB6C0C1FFA8CF3EF
:100E1000B4F806C0ACEB090707EBD77C09EB6C0C08
:100E20001FFA8CF1B4F804C0ACF1140C1FFA8CF268
:100E3000B4F800C00CF1140C1FFA8CF001F05CF84F
:100E40008AE04FF6FF71002001F014F9B4F806C0F3
:100E5000B4F80290ACEB090707EBD77C09EB6C0CFC
:100E60001FFA8CF3B4F806C0ACEB090808EBD87C89
:100E700009EB6C0C1FFA8CF1B4F804C0ACF1050C52
:100E80001FFA8CF2B4F800C00CF1050C1FFA8CF0BC
:100E900000F096FC002514E0E2886388D71A07EB7F
:100EA000D77203EB620291B22288521D05EB8503D3
:100EB00002EB430290B20123032200F0CFFB681C37
:100EC00085B2A0882188401A0A380A2190FBF1F0E7
:100ED000A842E1DC40E000214FF6FF7001F0CAF8C3
:100EE00001200090E2886388D21AA2F1280707EB5C
:100EF000D77203EB620291B2A2882388D21AA2F1C0
:100F0000180808EBD87203EB620290B218231A4655
:100F100000F0A6FC4CF218614FF4784001F0AAF8FA
:100F20000F4801F0B1F8E2886388D21AA2F12807CD
:100F300007EBD77203EB6202183291B2A2882388C2
:100F4000D21AA2F1200808EBD87203EB620290B229
:100F500004A200F029FB00BF00BFBDE8F883000039
:100F60000C000020CFF0C6A4000000002DE9F843DB
:100F700005460F4614461E46DDF82080512C6EDDD6
:100F8000512DFCDD98F80400092815D2DFE800F0A7
:100F9000051525354555687A9700002D01DB002F92
:100FA00004DAB1B2A0B200F081FF05E0B3B2A2B2A0
:100FB000B9B2A8B200F004FCA9E0601E512802DB1F
:100FC000681E512800DAA2E00120B3B2A2B2B9B281
:100FD0000090A8B200F090FF99E0A01E512802DB1B
:100FE000A81E512800DA92E00220B3B2A2B2B9B230
:100FF0000090A8B200F080FF89E0E01E512802DBDB
:10100000E81E512800DA82E00320B3B2A2B2B9B2DE
:101010000090A8B200F070FF79E0201F512802DB99
:10102000281F512800DA72E00420B3B2A2B2B9B28C
:101030000090A8B200F060FF69E0A4F10800512818
:1010400003DBA5F10800512800DA60E00820B3B204
:10105000A2B2B9B20090A8B200F04EFF57E057E03C
:10106000A4F10A00512803DBA5F10A00512800DA97
:101070004DE00A20B3B2A2B2B9B20090A8B200F01B
:101080003BFF44E0E01E512802DBE81E512800DA55
:101090003DE0002D01DB002F04DAB1B2A0B200F078
:1010A00005FF0BE0B3B2A2B2B9B2A8B200F088FB60
:1010B000B1B2A0B20123032200F0D0FA27E0A4F1DC
:1010C0001400512810DB28301249098888420BDCB3
:1010D0002838002808D406F114000F4909888842EE
:1010E00002DC2838002800D511E04FF6FF710846D1
:1010F00000F0C0FF0120A6F1140291B2A4F1140285
:10110000009090B228231A4600F0AAFB00BF00BF4F
:10111000BDE8F883280000202A00002051B1820099
:10112000A2F1C042126842F001038200A2F1C04263
:10113000136009E08200A2F1C0421268034B1A401A
:101140008300A3F1C0431A6070470000FEFF0F0048
:10115000D0E901121143C268114302691143426987
:10116000114382691143C2691143026A1143426A01
:101170001143826A1143C26A1143026B1143026830
:101180009200A2F1C0421160816808290BD1016868
:101190008900A1F1C041096841F04002016889005D
:1011A000A1F1C0410A60416B0968426B526841EA93
:1011B0000211426B926841EA0221426B928941EA34
:1011C0000241426B128A41EA0251426B127D41EAAE
:1011D0000261426B926911430268521C9200A2F1B3
:1011E000C0421160C16AB1F5804F1BD1816B0968A3
:1011F000826B526841EA0211826B926841EA0221D5
:10120000826B128A41EA0251826B127D41EA0261CD
:10121000826B9269114302689200A2F1C042C2F847
:10122000041107E06FF0704201688900A1F1C0412C
:10123000C1F8042170472DE9F0410246002500263F
:10124000002000230024002791F803C00CF00F05B4
:1012500091F803C00CF0100CBCF1000F03D091F812
:1012600002C04CEA050591F800C0BCF1000F31D076
:10127000146800202BE04FF0010C0CFA00F3B1F8D9
:1012800000C00CEA03069E4220D183004FF00F0CF1
:101290000CFA03F7BC4305FA03FC4CEA040491F88A
:1012A00003C0BCF1280F06D14FF0010C0CFA00FC72
:1012B000C2F814C00AE091F803C0BCF1480F05D190
:1012C0004FF0010C0CFA00FCC2F810C0401C0828BA
:1012D000D1D31460B1F800C0BCF1FF0F34DD546805
:1012E00000202EE000F1080C4FF0010808FA0CF382
:1012F000B1F800C00CEA03069E4221D183004FF0F2
:101300000F0C0CFA03F7BC4305FA03FC4CEA040487
:1013100091F803C0BCF1280F05D100F1080C08FAC0
:101320000CF8C2F8148091F803C0BCF1480F07D143
:1013300000F1080C4FF0010808FA0CF8C2F8108010
:10134000401C0828CED35460BDE8F081024600203E
:1013500093680B400BB1012000E000207047416111
:1013600070470161704700002DE9F04180460C464E
:101370001048007820B901F025F901200D490870C6
:101380002512E6B2A5F1A101C1EB011202EB411158
:1013900006EB4101A1390802C11700EB5171CF10D2
:1013A000054839182022404601F052F80020BDE8D7
:1013B000F0810000240000200030180000BFFEE78C
:1013C00010B504462CB14FF480510548FFF7C7FF14
:1013D00004E04FF480510248FFF7C3FF10BD000046
:1013E000001401402DE9F04106460F4614461D4603
:1013F0002B4622463946304600F0F2FB04FB05F04E
:101400000249098800F09FFABDE8F081360000200B
:1014100001B502E00098401E009000980028F9D124
:1014200008BD00002DE9F04389B080468946174683
:1014300010231A464946404600F0D2FB2C2000F00B
:1014400051FD394601A8FFF78FFF002422E001A8D3
:1014500010F814604FF6FF7000EA0626012000EB3A
:10146000440001A9085C064300250FE04FF400404A
:101470002841304020B10A48008800F037FD03E0E1
:101480000848008800F032FD681CC5B2102DEDDB65
:10149000601CC4B2102CDADB09B0BDE8F083000098
:1014A00034000020360000202DE9F05F8046894698
:1014B0001646A6F120001FFA80FA1E49096889889D
:1014C0001C4A1268D28801FB02F0C11700EB51716F
:1014D000C1F3C7071748006800680AFB070B1548E7
:1014E0000068C3881348006882884946404600F077
:1014F00077FB2C2000F0F6FC002416E0002510E01D
:101500001BF8040080212941084020B10A480088C6
:1015100000F0ECFC03E00948008800F0E7FC681CE0
:10152000C5B2082DECDB601CC4B2BC42E6DBBDE8F2
:10153000F09F000030000020340000203600002022
:1015400070B504460D46002624E03046134909686C
:101550008988084412490988884205DD00260F4819
:101560000068C088204484B220460C490968C988B4
:1015700008440C490988884201DD002600242A78A5
:1015800021463046FFF790FF6D1C044800688088B4
:10159000304486B228780028D7D170BD30000020B2
:1015A000280000202A0000202DE9F04105460E46C3
:1015B000144648E020787E2825DC2846244909681E
:1015C0008988084423490988884205DD0025204888
:1015D0000068C088304486B230461D490968C98811
:1015E00008441D490988884201DD0025002622782B
:1015F00031462846FFF758FF154800688088284480
:1016000085B2641C1FE028461030124909888842C0
:1016100003DD002506F1100086B2304610300E4979
:101620000988884201DD002500262788380200EB62
:10163000272087B23A4631462846FFF7F3FE05F1E8
:10164000100085B2A41C20780028B3D1BDE8F08139
:1016500030000020280000202A0000202DE9F05F43
:1016600005460E4691469B4600240FFA89F7032053
:10167000A0EB49000FFA80FA87E0BBF1000F40D0E1
:10168000A0463BE006EB080291B22A1990B200F0A6
:101690000DFC06EB080291B22A1B90B200F006FC8A
:1016A000321991B2A5EB080290B200F0FFFB321B99
:1016B00091B2A5EB080290B200F0F8FBA6EB08028D
:1016C00091B22A1B90B200F0F1FBA6EB080291B296
:1016D0002A1990B200F0EAFB321B91B205EB080226
:1016E00090B200F0E3FB321991B205EB080290B220
:1016F00000F0DCFB08F101000FFA80F8B845C1DD0D
:101700002FE0F21991B22A1990B200F0CFFBF21932
:1017100091B22A1B90B200F0C9FB321991B2EA1BB8
:1017200090B200F0C3FB321B91B2EA1B90B200F002
:10173000BDFBF21B91B22A1B90B200F0B7FBF21B6B
:1017400091B22A1990B200F0B1FB321B91B2EA19A2
:1017500090B200F0ABFB321991B2EA1990B200F0EE
:10176000A5FB601C04B2BAF1000F05DAA000801DD1
:1017700050440FFA80FA07E0E01B80000A30504422
:101780000FFA80FA781E07B200BFBC427FF775AF30
:10179000BDE8F09F70B504460D4604F10A018AB217
:1017A000143988B22B46294600F00AF805F10A00E0
:1017B00083B2143881B22246204600F001F870BD91
:1017C0002DE9FF4F83B081464FF0000AD3460598BC
:1017D000A0EB090504990698461ACDF804900498E0
:1017E0000090002D01DD012705E00DB9002702E082
:1017F0004FF0FF376D42002E02DD4FF0010806E08A
:1018000016B94FF0000802E04FF0FF387642B542BB
:1018100001DD2C4600E034460020029019E0DDE9AD
:10182000001000F043FBAA44B344A24505DDAAEB37
:10183000040A0198384480B20190A34505DDABEB62
:10184000040B0098404480B200900298401C80B283
:101850000290611C02988842E1DD07B0BDE8F08F7C
:101860002DE9F04104460D4616461F46DDF8188066
:10187000B8F1000F0CD03B4632462946204600F016
:10188000AFF906FB07F01749098800F05CF827E07C
:10189000A019401E82B22B4629462046FFF790FF32
:1018A000E819401E83B2A019401E82B2E819401EFA
:1018B00081B22046FFF784FFE819401E83B222461A
:1018C00029462046FFF77CFFE919491E8BB2A11972
:1018D000491E8AB2A119491E88B22946FFF770FF36
:1018E000BDE8F0813400002000B597B00121080266
:1018F00000F018FD0120019004200390800607905D
:10190000002002900490059006900890099008200D
:101910000A9010200B9000200C900E900F901090C9
:101920004FF480501190002012901390149001A851
:101930001590169008A8FFF70BFC01210020FFF777
:10194000EDFB17B000BD70B504460D4600262C20F7
:1019500000F0C8FA00BF03E0284600F0C7FA761C82
:10196000A642F9D370BD000008B50121602000F047
:10197000E9FC03208DF8020018208DF803004FF4D5
:101980008040ADF8000069465B48FFF754FC4FF417
:101990000040ADF8000069465748FFF74CFC0120B5
:1019A000ADF8000069465448FFF745FC0220ADF849
:1019B000000069465048FFF73EFC8020ADF800006B
:1019C00069464E48FFF737FC4FF48070ADF80000D1
:1019D00069464A48FFF72FFC4FF40070ADF800004D
:1019E00069464648FFF727FC4FF48060ADF80000D9
:1019F00069464248FFF71FFC4FF40060ADF8000055
:101A000069463E48FFF717FC4FF48050ADF80000E0
:101A100069463A48FFF70FFC4FF40050ADF800005C
:101A200069463648FFF707FC4FF48040ADF80000E8
:101A300069463248FFF7FFFB4FF40040ADF8000065
:101A400069462E48FFF7F7FB4FF48070ADF80000B1
:101A500069462948FFF7EFFB4FF40070ADF800002E
:101A600069462548FFF7E7FB4FF48060ADF80000BA
:101A700069462148FFF7DFFB03208DF8020018209C
:101A80008DF803001020ADF8000069461A48FFF7F2
:101A9000D2FB2020ADF8000069461748FFF7CBFBCA
:101AA0008020ADF8000069461348FFF7C4FB4FF4EF
:101AB0000060ADF8000069460F48FFF7BCFB10203E
:101AC0008DF8030003208DF802000220ADF800001D
:101AD00069460A48FFF7AFFB10208DF8030003208A
:101AE0008DF802004FF48050ADF8000069460248BE
:101AF000FFF7A1FB08BD00000014014000180140E1
:101B000010B50446072C00DD10BD2848047020469F
:101B100004EBD0714910A4EB410139B9F0202449FC
:101B200008804FF4A0702349088006E04FF4A070AD
:101B30001F490880F0201F490880362000F0D2F9A4
:101B4000082141EA441000F0D1F92A2000F0CAF936
:101B5000002000F0CBF9002000F0C8F914490988F2
:101B6000491EC1F3072000F0C1F911490978491E47
:101B7000C8B200F0BBF92B2000F0B4F9002000F04F
:101B8000B5F9002000F0B2F90A490988491EC1F3ED
:101B9000072000F0ABF907490978491EC8B200F0E8
:101BA000A5F92C2000F09EF900BFADE72C00002025
:101BB000280000202A00002010B5FFF7D5FEFFF70F
:101BC00093FE0120FFF7FCFB00F052F900F038F81B
:101BD00002480078FFF794FF10BD00002C000020A1
:101BE0002DE9F04104460D4616461F462A2000F016
:101BF00079F9201200F07AF9E0B200F077F9A11932
:101C0000491EC1F30F2000F071F9A119491EC8B295
:101C100000F06CF92B2000F065F9281200F066F94D
:101C2000E8B200F063F9E919491EC1F30F2000F092
:101C30005DF9E919491EC8B200F058F9BDE8F08114
:101C400010B5CF2000F04EF9002000F04FF98120B0
:101C500000F04CF9302000F049F9ED2000F042F995
:101C6000642000F043F9032000F040F9122000F056
:101C70003DF9812000F03AF9E82000F033F98520A1
:101C800000F034F9102000F031F9782000F02EF93E
:101C9000CB2000F027F9392000F028F92C2000F0A3
:101CA00025F9002000F022F9342000F01FF902206D
:101CB00000F01CF9F72000F015F9202000F016F9CB
:101CC000EA2000F00FF9002000F010F9002000F0E9
:101CD0000DF9B12000F006F9002000F007F91B20F3
:101CE00000F004F9B62000F0FDF80A2000F0FEF83C
:101CF000A22000F0FBF8C02000F0F4F8352000F03E
:101D0000F5F8C12000F0EEF8112000F0EFF8C52042
:101D100000F0E8F8452000F0E9F8452000F0E6F88A
:101D2000C72000F0DFF8A22000F0E0F8F22000F079
:101D3000D9F8002000F0DAF8262000F0D3F80120CE
:101D400000F0D4F8E02000F0CDF80F2000F0CEF83D
:101D5000262000F0CBF8242000F0C8F80B2000F07B
:101D6000C5F80E2000F0C2F8092000F0BFF854209A
:101D700000F0BCF8A82000F0B9F8462000F0B6F852
:101D80000C2000F0B3F8172000F0B0F8092000F0A4
:101D9000ADF80F2000F0AAF8072000F0A7F8002007
:101DA00000F0A4F8E12000F09DF8002000F09EF87B
:101DB000192000F09BF81B2000F098F8042000F098
:101DC00095F8102000F092F8072000F08FF82A20F4
:101DD00000F08CF8472000F089F8392000F086F8F0
:101DE000032000F083F8062000F080F8062000F0C1
:101DF0007DF8302000F07AF8382000F077F80F20D6
:101E000000F074F8362000F06DF8C82000F06EF88D
:101E10002A2000F067F8002000F068F8002000F0A9
:101E200065F8002000F062F8EF2000F05FF82B204A
:101E300000F058F8002000F059F8002000F056F8A3
:101E4000012000F053F83F2000F050F83A2000F055
:101E500049F8552000F04AF8112000F043F80348F3
:101E6000FFF7D6FA292000F03DF810BDFCBF0200B4
:101E700010B502210748FFF772FA40F6FF20FFF77E
:101E8000C7FA02210348FFF76CFA40F6FF20FFF77C
:101E9000BFFA10BD0018014070B504460D4601237D
:101EA0001A4629462046FFF79BFE70BD70B50546D1
:101EB0000C460948008885420CDA084800888442AC
:101EC00008DA21462846FFF7E7FF05480188012088
:101ED000FFF739FD70BD0000280000202A00002017
:101EE000340000204FF0C04108807047014908804D
:101EF00070470000000002602DE9F04F8BB00546EE
:101F00000E4691469A46DDF850B00027B8460020AC
:101F10000A9009900890079006900590002404907C
:101F2000039002900190A9EB0500002802DDA9EBC7
:101F3000050001E0A5EB090007B2AAEB06000028A6
:101F400002DDAAEB060001E0A6EB0A000FFA80F81A
:101F500028B20A9030B20990A94503DB012008900D
:101F6000079003E04FF0FF3008900790B24503DB85
:101F700001200690059003E04FF0FF300690059099
:101F800047450DDB0020089005903C46384607EB9E
:101F9000D071491009B20491CDF80C8002970CE081
:101FA0000020079006904446404608EBD071491047
:101FB00009B204910397CDF808800020019041E018
:101FC0000A9858442349098888420DDC0A98B0EBE6
:101FD0000B0009D4099858441F490988884203DC3A
:101FE0000998B0EB0B0000D528E0099A91B20A9A43
:101FF00090B201235A46FFF731FBDDE90310084494
:1020000000B204900498A0420DDB0498001B00B2BB
:10201000049008990A98084400B20A900699099811
:10202000084400B2099007990A98084400B20A903F
:1020300005990998084400B2099000BF0198401C16
:1020400000B20190DDE901018842B9DD0BB0BDE8C5
:10205000F08F0000280000202A00002001480068BE
:1020600070470000300000200149088070470000E0
:1020700036000020024A1080024A1180704700009A
:10208000340000203600002001490860704700003D
:102090003000002001490880704700003400002013
:1020A00008B50121082000F04DF92020ADF800000E
:1020B00010208DF8030003208DF8020069460F48B8
:1020C000FFF7B9F80120ADF8000069460B48FFF7AB
:1020D000B2F80220ADF8000069460848FFF7ABF8F7
:1020E00020210648FFF73DF901210448FFF739F99F
:1020F00002210248FFF735F908BD0000000C01403D
:1021000000BFFEE77047000010B500241A480078B1
:10211000012830D1FEF728F804461848007820B18D
:1021200016480078401E1549087014480078F8B920
:1021300013480078E0B900F0A9F81248124909786C
:1021400050F82100114908600F48007810490978BB
:1021500088420DD00D480068806A401C0B49096810
:1021600088620C480068401C0A490860FEF718F8AD
:102170002046FDF7FDFF10BD3A0100202D01002093
:102180002E010020DC060020300100204801002044
:102190002F0100201C0100207047000070B50026B0
:1021A00000F072F8FDF7E0FF064631480068401C79
:1021B0002F4908603046FDF7DBFF2E4800780128E4
:1021C00053D12D48007820B1012804D0022809D12C
:1021D00003E001250BE0002509E001250120264947
:1021E000087004E0012500202349087000BF00BFEB
:1021F00005B970BD2148046833E0FDF7B5FF064618
:10220000E06950B3E069401EE061E06928BB94F8E2
:10221000200000F0370040B114F8200F00F0C80093
:10222000207001206070203C02E0002084F8210032
:1022300094F8200000F0080078B92434A078104900
:10224000097808430E49087020780E49085C6178C7
:10225000084314F824190B4A505464693046FDF7BA
:1022600087FF94F822003F28C7D100BFC1E70000D4
:10227000540100203A010020500100204C010020B0
:102280003101002032010020704700000649074A52
:102290001278885C0649095C034A515C01EBC00175
:1022A000044A117070470000347C0008310100209E
:1022B000320100203001002070B505462846FFF7A6
:1022C0001FFC4FF6FF70FFF7CFFE1248038812483D
:1022D000028800210846FFF785F800F00BFC002477
:1022E0000CE004EB44020D4B03EBC20004EB440290
:1022F00003EBC20211698847601CC4B2102CF0DBEA
:102300000020074908600871098888B2FFF7C2FEFB
:1023100070BD00002A000020280000205C01002081
:102320000000002029B1064A52690243044B5A6159
:1023300004E0034A52698243014B5A61704700002E
:102340000010024029B1064A92690243044B9A6187
:1023500004E0034A92698243014B9A61704700008E
:102360000010024030B500210022002400232D4D32
:102370006D6805F00C0121B1042905D0082923D18D
:1023800005E0294D056022E0274D05601FE0254D41
:102390006D6805F47012234D6D6805F480340225D4
:1023A00005EB92421CB9214D554305600BE01D4DD4
:1023B0006D6805F400351DB11C4D5543056002E004
:1023C000194D5543056002E0174D056000BF00BF81
:1023D000144D6D6805F0F0010909154D6B5C056839
:1023E000DD4045600F4D6D6805F4E061090A104D50
:1023F0006B5C4568DD4085600A4D6D6805F4605191
:10240000C90A0B4D6B5C4568DD40C560054D6D68C4
:1024100005F44041890B074D6B5CC568B5FBF3F5CE
:10242000056130BD0010024000127A0000093D0035
:10243000080100201801002021B1028842F040026A
:10244000028004E002884FF6BF731A400280704792
:1024500070B505460C46164601211048FEF77FFF71
:10246000032000F07FF9C4F3074000F07BF9C4F3C8
:10247000072000F077F9E0B200F074F904E0FF20E3
:1024800000F070F928706D1C301EA6F101018EB2AB
:10249000F5D101210148FEF764FF70BD0010014035
:1024A0002DE9F05F07460E4614464FF00008C1467E
:1024B000C2460025AB4606F0FF0ACAF10000C5B2CD
:1024C0002046E11704EB1161C1F30728E11704EB83
:1024D00011610912A4EB012101F0FF09BAF1000F0B
:1024E00020D1B8F1000F05D122463146384600F020
:1024F000C9F864E009E04FF480723146384600F0D4
:10250000C1F806F5807607F58077B8F10000A8F1EC
:10251000010101F0FF08EED14A463146384600F08D
:10252000B1F84CE0B8F1000F18D1A94510DDA9EBC6
:10253000050000F0FF0B2A463146384600F0A2F8AD
:102540002E442F445A463146384600F09BF836E078
:1025500022463146384600F095F830E0601B84B2E0
:102560002046E11704EB1161C1F30728E11704EBE2
:1025700011610912A4EB012101F0FF092A4631463D
:10258000384600F07FF82E442F4409E04FF4807263
:102590003146384600F076F806F5807607F5807704
:1025A000B8F10000A8F1010101F0FF08EED1B9F186
:1025B000000F04D04A463146384600F063F8BDE8C3
:1025C000F09F000000B587B001210803FFF7BAFEB5
:1025D0000121D420FFF7B6FE0120ADF8040003204E
:1025E0008DF8060010208DF8070001A92248FEF79B
:1025F00022FE2020ADF8040018208DF8070001A964
:102600001E48FEF718FE4020ADF8040001A91B4843
:10261000FEF711FE8020ADF8040001A91748FEF76F
:102620000AFE01211448FEF79CFE0020ADF80800C8
:102630004FF48270ADF80A000020ADF80C000220C3
:10264000ADF80E000120ADF810004002ADF8120008
:102650000820ADF814000020ADF816000720ADF8F2
:10266000180002A9064800F0F1F801210448FFF71C
:10267000E3FE07B000BD000000100140000801406B
:102680000030014070B505460C46164600F0C0F813
:1026900001211548FEF763FE022000F063F8C4F341
:1026A000074000F05FF8C4F3072000F05BF8E0B2E9
:1026B00000F058F8B6F5807F04DD4FF480760BA06B
:1026C00001F0E4FA03E0287800F04CF86D1C301EAD
:1026D000A6F101018EB2F6D101210348FEF741FEB9
:1026E00000F07CF870BD0000001001403C3C2D461D
:1026F0004C4153482D4552524F522D3E3E2053508F
:10270000495F464C4153485F506167655772697431
:102710006520746F6F206C61726765210A0000008C
:1027200010B5044600F074F800F058F801210C4888
:10273000FEF715FE202000F015F8C4F3074000F066
:1027400011F8C4F3072000F00DF8E0B200F00AF829
:1027500001210348FEF705FE00F040F810BD00001F
:102760000010014010B504464FF48050194908602C
:102770000AE018490868411E164A116020B9002075
:1027800000F082F8C0B210BD0221134800F050F8EA
:102790000028EED02146104800F056F84FF4805043
:1027A0000C4908600AE00B490868411E094A11609B
:1027B00020B9012000F068F8C0B2E4E70121064822
:1027C00000F036F80028EED0034800F03AF8C0B226
:1027D000D9E70000080000200030014010B50024B7
:1027E00001210A48FEF7BBFD0520FFF7BBFF00BF34
:1027F000FF20FFF7B7FF044604F001000028F7D1DF
:1028000001210248FEF7ADFD10BD0000001001409F
:1028100010B501210548FEF7A2FD0620FFF7A2FF33
:1028200001210248FEF79DFD10BD0000001001408F
:102830000246002013890B400BB1012000E000206C
:1028400070470146888970478181704710B5002222
:10285000028802F441520B884C8823438C8823431E
:10286000CC8823430C8923434C8923438C892343FD
:10287000CC8923431A430280838B4FF2FF74234099
:1028800083830B8A038210BD10B50446214602A043
:1028900001F0FCF9002010BD3C3C2D464C41534852
:1028A0002D4552524F522D3E3E2053504920B5C81F
:1028B000B4FDB3ACCAB1216572726F72436F6465C7
:1028C000203D2025640A0000704710B500F002F892
:1028D00010BD00000CB50020019000903348006846
:1028E00040F480303149086000BF3048006800F48F
:1028F000003000900198401C0190009818B9019890
:10290000B0F5A06FF1D12948006800F4003010B193
:102910000120009001E0002000900098012843D1A0
:102920002348006840F0100021490860084600680C
:1029300020F0030008600846006840F002000860CC
:102940001A48406819494860084640684860084687
:10295000406840F4806048600846406820F47C107D
:1029600048600846406840F4E8104860084600683F
:1029700040F08070086000BF0C48006800F00070F4
:102980000028F9D00948406820F003000749486052
:102990000846406840F00200486000BF03484068B5
:1029A00000F00C000828F9D10CBD00000010024016
:1029B0000020024010B5FDF7D7FB0446064800781A
:1029C000401C054908702046FDF7D2FBFFF7E6FBE7
:1029D000FFF79AFB10BD00002D01002010B5134831
:1029E000006840F00100114908600846406810493D
:1029F00008400E494860084600680E4908400B49E7
:102A000008600846006820F4802008600846406896
:102A100020F4FE0048604FF41F008860FFF755FF68
:102A20004FF000600449086010BD00000010024033
:102A30000000FFF8FFFFF6FE08ED00E070B5054668
:102A40000E46002450E004EB4400294901EBC0008D
:102A50008088A8422CDB04EB440001EBC000C08856
:102A6000B04225DB04EB440001EBC0004088B042DB
:102A70001EDC04EB440031F83000A84218DC04EB03
:102A8000440001EBC000007B60BB012004EB44016B
:102A9000174A02EBC101087304EB4402144B03EB29
:102AA000C20004EB440203EBC2021169884719E03B
:102AB00004EB44000E4901EBC000007B012811D15A
:102AC000002004EB44010A4A02EBC101087304EB45
:102AD0004402074B03EBC20004EB440203EBC202C7
:102AE00011698847601CC4B2102CACDB70BD0000BB
:102AF0005C0100200020C44908804880282088808C
:102B00001C20C880002088600873C0480861C04845
:102B10004861002008831C21BB4841832821818310
:102B20003821C18346F20C310162002180F8241063
:102B3000B6498162B649C1620020B349088638218E
:102B4000B1484186282181865421C1861F21816395
:102B5000002180F83C10AD490164AD49416400207A
:102B6000A949A1F848005421A748A0F84A102821F3
:102B7000A0F84C107021A0F84E1040F2FF710165D2
:102B8000002180F85410A1498165A149C165002048
:102B90009D49A1F8600070219B48A0F8621028218F
:102BA000A0F864108C21A0F866104FF4784181667B
:102BB000002180F86C109549016795494167002014
:102BC0009149A1F878008C218F48A0F87A1028212B
:102BD000A0F87C10A821A0F87E104FF61F01C0F8C5
:102BE0008010002180F884108849C0F88810884936
:102BF000C0F88C1000208449A1F89000A8218248D8
:102C0000A0F892102821A0F89410C421A0F89610E2
:102C10004FF4FC61C0F89810002180F89C107B49AB
:102C2000C0F8A0107A49C0F8A41000207649A1F895
:102C3000A800C4217448A0F8AA102821A0F8AC105C
:102C4000744801887048A0F8AE104CF21861C0F8C2
:102C5000B010002180F8B4106F49C0F8B8106F4967
:102C6000C0F8BC1028206849A1F8C00000216648BF
:102C7000A0F8C2105021A0F8C4101C21A0F8C61062
:102C80000021C0F8C81080F8CC106549C0F8D010F9
:102C90006449C0F8D41028205B49A1F8D8001C2151
:102CA0005948A0F8DA105021A0F8DC103821A0F81B
:102CB000DE100121C0F8E010002180F8E41058492E
:102CC000C0F8E8105749C0F8EC1028204E49A1F888
:102CD000F00038214C48A0F8F2105021A0F8F41070
:102CE0005421A0F8F6100221C0F8F810002180F855
:102CF000FC104B49C0F800114A49C0F804112820C3
:102D00004149A1F8080154213F48A0F80A11502177
:102D1000A0F80C117021A0F80E110321C0F81011B9
:102D2000002180F814113E49C0F818113D49C0F83F
:102D30001C1128203449A1F8200170213248A0F844
:102D400022115021A0F824118C21A0F82611042171
:102D5000C0F82811002180F82C113149C0F8301139
:102D60003049C0F8341128202749A1F838018C21B6
:102D70002548A0F83A115021A0F83C11A821A0F84C
:102D80003E110521C0F84011002180F8441124496A
:102D9000C0F848112349C0F84C1128201A49A1F85D
:102DA0005001A8211848A0F852115021A0F8541140
:102DB000C421A0F856110621C0F85811002180F84E
:102DC0005C111749C0F860111649C0F86411282039
:102DD0000D49A1F86801C4210B48A0F86A115021DF
:102DE000A0F86C110B4801880748A0F86E11082163
:102DF000C0F87011002180F874110949C0F87811E9
:102E00000849C0F87C1170475C010020A50A000841
:102E1000610900082A000020910900080D09000836
:102E2000290B00084109000870B505460E4600242C
:102E30003BE004EB44001F4901EBC0008088A8423E
:102E400031DD04EB440031F83000A8422BDA04EB0A
:102E5000440001EBC000C088B04224DD04EB440014
:102E600001EBC0004088B0421DDA002004EB4401B1
:102E7000104A02EBC101087304EB44020D4B03EB53
:102E8000C20004EB440203EBC2021169884704EB61
:102E90004402084B03EBC20004EB440203EBC20202
:102EA0005169884703E0601CC4B2102CC1DB00BF2D
:102EB00070BD00005C01002021B1828942F4005203
:102EC000828104E082894DF6FF731A408281704747
:102ED00000B585B001210420FFF734FA01218803F1
:102EE000FFF730FA4FF40070ADF8100018208DF89D
:102EF000130003208DF8120004A91348FEF79BF974
:102F00004FF48060ADF8100004208DF8130004A980
:102F10000D48FEF790F94FF4E13000900020ADF835
:102F20000400ADF80600ADF80800ADF80C000C2068
:102F3000ADF80A006946054800F018F80121034879
:102F4000FFF7BAFF05B000BD00080140003801409E
:102F500002460020B1F5007F00D100BF13880B406E
:102F60000BB1012000E00020704700002DE9F04780
:102F700086B005460E460024A24600BFA1460027A3
:102F8000B08900B100BF2F462C8A4CF6FF70044078
:102F9000F08804432C82AC894EF6F3100440B088CC
:102FA00031890843718908430443AC81AC8A4FF6E8
:102FB000FF400440B0890443AC8201A8FFF7D2F976
:102FC0001F48874202D1DDF810A001E0DDF80CA017
:102FD000A88900F4004040B10AEBCA0000EB0A10D7
:102FE00031684900B0FBF1F807E00AEBCA0000EBDA
:102FF0000A1031688900B0FBF1F86420B8FBF0F0EA
:1030000004012009642101FB1089A88900F4004013
:1030100040B1322000EBC900B0FBF1F000F0070036
:10302000044308E0322000EB09106421B0FBF1F00A
:1030300000F00F0004432C8106B0BDE8F0870000CB
:1030400000380140C1F308028280704700BFFEE7EC
:103050002DE9F04105460C4616460127B4F900104B
:10306000B4F91020891AB4F90A30B4F912209A1A66
:103070005143B4F90820B4F91030D31AB4F902C09E
:10308000B4F91220ACEB020203FB1210FDF780FA38
:10309000B0610021B069FDF7E1FA01D10027C3E07A
:1030A000B5F90010B5F91020891AB4F90A30B4F94D
:1030B00012209A1A5143B5F90820B5F91030D31AE5
:1030C000B4F902C0B4F91220ACEB020203FB1210F7
:1030D000FDF75EFA3060B4F90010B4F91020891AD7
:1030E000B5F90820B5F91030D21A5143B5F90020CE
:1030F000D21AB4F90830B4F910C0A3EB0C0302FBE8
:103100001310FDF745FA7060B4F91010B5F90820F6
:103110005143B4F90820B5F9103002FB1311B4F98A
:1031200002205143B4F900205A43B4F91030B5F9E4
:1031300000C003FB1C23B4F90A2003FB0212B4F9FC
:10314000081001FB0CF1B4F90030B5F908C003FB1D
:103150001C13B4F9121003FB0120FDF719FAB0603B
:10316000B5F90220B5F91210511AB4F90A30B4F9C0
:1031700012209A1A5143B5F90A30B5F912209B1A58
:10318000B4F902C0B4F91220ACEB020203FB121036
:10319000FDF7FEF9F060B4F90010B4F91020891AB7
:1031A000B5F90A30B5F912209A1A5143B5F902302F
:1031B000B5F912209A1AB4F90830B4F910C0A3EB8B
:1031C0000C0302FB1310FDF7E3F93061B4F91010A2
:1031D000B5F90A205143B4F90830B5F9122003FBC0
:1031E0001211B4F902205143B4F90020B5F912309C
:1031F0005A43B4F91030B5F902C003FB1C23B4F9EB
:103200000A2003FB0213B4F9081001FB0CF1B4F916
:1032100000C0B5F90A200CFB1212B4F9121002FB1F
:103220000130FDF7B5F970613846BDE8F08101B5B0
:10323000002007E00C2100BF0A1EA1F10103D9B252
:10324000FAD1401C00998842F4D308BD2DE9FC5FF7
:1032500005460C460126684600F0BEF8002865D0F9
:10326000BDF90200FDF794F983463248007800EB7F
:10327000400004EBC00041685846FDF738F881462D
:10328000BDF90000FDF784F983462A48007800EB79
:10329000400054F830105846FDF729F88246494658
:1032A000FCF7CDFF80462348007800EB400004EB9C
:1032B000C00081684046FCF7C2FF0746FDF771F980
:1032C00000B22880BDF90200FDF762F98346194873
:1032D000007800EB400004EBC00001695846FDF7A0
:1032E00006F88146BDF90000FDF752F98346114802
:1032F000007800EB400004EBC000C1685846FCF7C2
:10330000F6FF82464946FCF79AFF80460948007856
:1033100000EB400004EBC00041694046FCF78FFF22
:103320000746FDF73EF900B2688000E0002630460F
:10333000BDE8FC9F2C00002008B501216020FFF7AC
:1033400001F80120ADF800008DF8020010208DF882
:10335000030069461A48FDF76EFF0420ADF800002F
:1033600069461748FDF767FF0820ADF80000012007
:103370008DF8020048208DF8030069461048FDF7DB
:103380005AFF4FF40050ADF8000001208DF8020004
:1033900010208DF8030069460A48FDF74CFF4FF4F2
:1033A00000510848FDF7DBFF1020ADF80000482071
:1033B0008DF8030069460248FDF73DFF08BD000097
:1033C000001801400014014010B50446204600F0EA
:1033D0002BFC00F0C1F810BD2DE9F0478CB006467B
:1033E000002528216846FCF718FF00BF0AA90BA892
:1033F00000F09EF8BDF92C002DF81500BDF928103D
:1034000005A820F81510681CC5B210214648FDF724
:103410009DFF08B90A2DE9DB10214348FDF796FF0F
:1034200010B10020414908700A2D7BD1BDF9007010
:10343000B846BDF91490CA4601240EE03DF91400C7
:10344000B84202DA3DF9147005E03DF91400404538
:1034500001DD3DF91480601CC4B20A2CEEDB0124AE
:1034600012E005A830F91400484503DA05A830F940
:10347000149007E005A830F91400504502DD05A8B6
:1034800030F914A0601CC4B20A2CEADBBDF90000BC
:10349000BDF902100844BDF904100844BDF9061036
:1034A0000844BDF908100844BDF90A100844BDF9E4
:1034B0000C100844BDF90E100844BDF91010084462
:1034C000BDF912100844C01BA0EB0800C01000B2E8
:1034D0003080BDF91410BDF916000144BDF9180083
:1034E0000144BDF91A000144BDF91C000144BDF9B5
:1034F0001E000144BDF920000144BDF92200014431
:10350000BDF924000144BDF926000844A0EB0900E0
:10351000A0EB0A00C01000B2708001200CB0BDE822
:10352000F087FFE70020F9E700180140F8000020CD
:103530002DE9F04104460D469020FFF745FF06B205
:103540000120FFF774FED020FFF73EFF07B2268070
:103550002F80BDE8F081000070B5002504211148DE
:10356000FDF7FDFE01210F48FDF7FBFE002414E0EE
:1035700001210C48FDF7F3FE08210A48FDF7E6FE9D
:103580000646C4F10B0006FA00F0284385B201217B
:103590000448FDF7E6FE601CC4B20C2CE8DB2846AC
:1035A00070BD00000018014010B5002427480078C5
:1035B00020B1012811D002283FD12FE0102124484A
:1035C000FDF7C4FE20B9012020490870002403E063
:1035D00000201E490870002434E010211C48FDF72B
:1035E000B5FEA0B91B480068401C1A49086008468F
:1035F0000068022806D900200860022013490870DC
:1036000001240AE0012011490870002405E000208F
:10361000104908600D490870002413E010210C487F
:10362000FDF794FE20B9022008490870012403E048
:10363000002006490870002404E0002003490870B7
:10364000002400BF00BF204610BD0000F90000208C
:1036500000180140FC00002038B50446B4F904000D
:10366000401C20B9B4F90400401C00B938BD628880
:1036700091B2228890B2FFF7E1F907480090B4F9BF
:103680000230B4F90020B4F90610B4F90400FDF7D3
:103690006DFC00BFEAE700000000002010B5FFF756
:1036A00083FF012819D12020154908600120091D38
:1036B00008600220091F086012491348FFF7C6FD81
:1036C00000BF00BF1048FFF7C7FF0F4800880E4932
:1036D000888008464088C88011E02020084908609A
:1036E000012008600220091D0860074800F00EF85C
:1036F0004FF0FF300449088048808880C88010BDA2
:10370000100C0140380000200001002010B50446D4
:10371000B4F90400401C20B9B4F90400401C00B9FD
:1037200010BDE28891B2A28890B2FFF77DFB00BF86
:10373000F6E700002DE9F04FB9B004464FF000095C
:10374000CA4600201E901D900026FE48FEF79CFCF5
:1037500000211F20FEF78EFC2046FEF7D1F9FA4823
:1037600000888010ADF85400F84800888010ADF84B
:103770005600BDF85400ADF85C00F448008800EB3A
:103780004000801001B215A84181EF48008800EB8D
:103790004000801000B2ADF8640015A84189418254
:1037A000BDF86400ADF86C00BDF8561015A8418353
:1037B000002558E0E5480388E348028800210846D0
:1037C000FDF710FEE2A6FEF749FC8088DE49098875
:1037D00091FBF0F83046FCF72BFDA8EB0000470802
:1037E00020233A46E0A11FA8009600F05FFAD749CF
:1037F000098848101FA9FDF7A3FEFEF72FFC80885B
:10380000D149098891FBF0F0471E681C009007EB36
:10381000D77042102023D6A11FA800F047FAFEF768
:103820001DFCC088C9490988C0EB610087B21FA987
:103830003846FDF785FED048FFF7F9FC15AA02EBE4
:10384000C502528891B215AA32F8352090B2FDF720
:10385000A1FF00BF0DA901EBC500FFF7BDFD0028CA
:10386000F8D0681CC5B2042DA4DB06AA0DA915A8C2
:10387000FFF7EEFB00210C98FCF7F0FE00D143E1CE
:10388000BDF94E00FCF784FE03900799FCF72FFD6D
:103890008346BDF94C00FCF77BFE03900699FCF7CC
:1038A00026FD59460490FCF7CAFC80460899FCF7AF
:1038B000C6FC05900C99FCF74CFD0746FCF78AFE08
:1038C0001FFA80F9BDF94E00FCF762FE03900A99D9
:1038D000FCF70DFD0590BDF94C00FCF759FE039077
:1038E0000999FCF704FD04900599FCF7A8FC8346B0
:1038F0000B99FCF7A4FC80460C99FCF72AFD0746BF
:10390000FCF768FE1FFA80FABDF96C00484504DA3E
:10391000BDF96C00A9EB000003E0BDF96C00A0EB61
:10392000090080B21E90BDF96E00504504DABDF961
:103930006E00AAEB000003E0BDF96E00A0EB0A00E8
:1039400080B21D901E980F2802DC1D980F2800DD04
:10395000DAE00C98FCF752FECDE902010698FCF77C
:103960004DFE07460022854BFCF731FDCDE90001F5
:10397000DDE90223FCF79DFDCDE90401FCF751FED2
:1039800004EB44017E4A42F831000C98FCF736FE05
:10399000CDE902010798FCF731FE07460022774B7C
:1039A000FCF715FDCDE90001DDE90223FCF781FDFF
:1039B000CDE90401FCF735FE04EB4401704A02EB4B
:1039C000C10148600C98FCF719FECDE90201089886
:1039D000FCF714FE07460022684BFCF7F8FCCDE923
:1039E0000001DDE90223FCF764FDCDE90401FCF7E9
:1039F00018FE04EB4401624A02EBC10188600C9896
:103A0000FCF7FCFDCDE904010998FCF7F7FD002265
:103A10005A4BCDE90001FCF7DAFCCDE90201DDE902
:103A20000423FCF746FD0746FCF7FBFD04EB4401CD
:103A3000534A02EBC101C8600C98FCF7DFFDCDE9E9
:103A400004010A98FCF7DAFD00224C4BCDE9000195
:103A5000FCF7BDFCCDE90201DDE90423FCF729FDFB
:103A60000746FCF7DEFD04EB4401454A02EBC101C9
:103A700008610C98FCF7C2FDCDE902010B98FCF738
:103A8000BDFD00223D4BCDE90001FCF7A0FC07463F
:103A9000DDE90223FCF70DFDCDE90401FCF7C1FDD2
:103AA00004EB4401364A02EBC10148612748038810
:103AB0002548028800210846FDF794FC4FF4FC607D
:103AC000FEF7E8FA2FA6FEF7C9FA80881E49098892
:103AD00091FBF0F83046FCF7ABFBA8EB0000470881
:103AE00020233A4620A11FA8009600F0DFF81749CE
:103AF000098848101FA9FDF723FD2748FFF797FB0A
:103B0000012039B0BDE8F08F104803880E480288C4
:103B100000210846FDF766FC4FF47840FEF7BAFA3C
:103B20001EA6FEF79BFA80880749098891FBF0F8EA
:103B30003046FCF77DFBA8EB0000470820233A46FF
:103B400009A133E00C000020280000202A000020FA
:103B5000546F7563682043616C696272617465209B
:103B60002E2E2E2E2E2E0000252A632573000000F7
:103B7000252A632564000000E09304000000F03F64
:103B80003800002043616C6962726174652053756E
:103B9000636365640000000040420F0043616C698C
:103BA0006272617465206661696C00001FA80096EE
:103BB00000F07CF81649098848101FA9FDF7C0FCE1
:103BC00014A6FEF74BFA80881549098891FBF0F896
:103BD0003046FCF72DFBA8EB0000470820233A46AF
:103BE000AFF27C011FA8009600F060F8FEF736FAED
:103BF000C0880749098800EB610087B21FA93846D1
:103C0000FDF79EFC0748FFF712FB002079E7000054
:103C10002A00002074727920616761696E000000DB
:103C20002800002040420F0070B5054604211648C8
:103C3000FDF795FB01211448FDF791FB00241FE0DF
:103C4000C4F1070045FA00F000F0010020B10421A2
:103C50000D48FDF786FB03E004210B48FDF77FFBD1
:103C60000520FFF7E4FA01210748FDF77AFB05205C
:103C7000FFF7DDFA01210448FDF771FB601CC4B2B7
:103C8000082CDDDB70BD0000001801400FB4054BAF
:103C900010B503A9044A029800F02CF810BC5DF896
:103CA00014FB000041400008580100200FB4084BED
:103CB00010B504A902AA039800F01CF8044602A952
:103CC000002000F0B8F9204610BC5DF814FB00009D
:103CD0003740000802E008C8121F08C1002AFAD1C4
:103CE00070477047002001E001C1121F002AFBD17C
:103CF000704700002DE9FF4F8BB08846054600262F
:103D000006E025280BD0DDE90D1290476D1C761CCE
:103D100028780028F5D10FB03046BDE8F08F002498
:103D2000A146A2460122AE4900E0044315F8013F36
:103D3000203B02FA03F00842F7D128782A2810D055
:103D40006FF02F022878A0F13001092915D809EB6E
:103D5000890102EB410144F0020400EB01096D1CF2
:103D6000F0E758F8041B5FEA010903D544F4005456
:103D7000C9F1000944F002046D1C28782E2817D1DF
:103D800015F8010F44F004042A280ED06FF02F021A
:103D90002878A0F1300109290AD80AEB8A0102EB40
:103DA000410100EB010A6D1CF2E758F804AB6D1CF1
:103DB00028786C280FD006DC4C2817D068280DD046
:103DC0006A2814D104E0742810D07A280FD10DE0AD
:103DD00044F400140AE044F4801401E044F4401474
:103DE0006978814202D104F580146D1C6D1C28781D
:103DF000692865D006DC00288DD0632827D0642888
:103E000006D15DE06E2808D073282AD0752877D0B7
:103E1000DDE90D129047761CE0E0C4F30250022861
:103E200009D003280DD0D8F8001004280DD00E605A
:103E300008F10408D2E0D8F80010F217C1E90062D6
:103E4000F6E7D8F800100E80F2E70E70F0E718F8E9
:103E5000041B8DF8001000208DF80100EB460120B6
:103E600003E058F804BB4FF0FF3061074FF0000744
:103E700001D40AE07F1C57450DDA8742FADB1BF8B4
:103E800007100029F6D106E07F1C8742FCDB1BF8F7
:103E900007100029F8D1DDE90D23A9EB07008146C1
:103EA000214600F0B1F83044C61904E0DDE90D12F6
:103EB0001BF8010B90477F1EF8D22146484688E048
:103EC00058F8040BC4F302514FF00A0B032900D138
:103ED00000B2042900D140B2002802DA40422D216C
:103EE00002E0210505D52B218DF82410012104E0E5
:103EF00006E0E10710D02021F6E708AF089113E0B3
:103F000058F8040BC4F302514FF00A0B032900D1F7
:103F100080B2042900D1C0B20021EEE75946FCF777
:103F2000A7FB303107F8011D0028F7D1ADEB0700E2
:103F300000F1200B600702D524F4803401E04FF03B
:103F4000010ADA4502DDAAEB0B0000E00020824600
:103F500000EB0B0108980144A9EB01000A90E00373
:103F600006D4DDE90D2321460A9800F04DF80644F9
:103F70004FF0000908E009A911F80900DDE90D1268
:103F8000904709F10109761C08998945F3DBE003A4
:103F90000CD5DDE90D2321460A9800F035F80644DA
:103FA00004E0DDE90D1230209047761CBAF10001E3
:103FB000AAF1010AF5DC05E0DDE90D1217F8010BA5
:103FC0009047761CBBF10001ABF1010BF4DC0A98C1
:103FD0002146DDE90D2300F005F806446D1C97E647
:103FE000092801002DE9F041044600251E46174628
:103FF000880404D405E039462020B0476D1C641EB7
:10400000F9D52846BDE8F0812DE9F04104460025A8
:104010001E469046C80301D5302700E020278804BB
:1040200004D505E041463846B0476D1C641EF9D5FD
:104030002846BDE8F0810A68531C0B601070704779
:1040400070B504460D46E1B20548FEF7FBFF00BF20
:1040500080210348FEF77CFF0028F9D0204670BD80
:1040600000380140FDF7A8FDFFF766F900210320A5
:10407000FCF706FCFEF72CFFFEF712F808A0FFF78E
:1040800005FE1248FFF702FE0320FDF739FD104838
:104090000078FEF711F901E0FFF700FBFCE70000F4
:1040A0000D0A202A2A2A2A2A2A2A2A2A2A20B4A5BC
:1040B000C3FEBBADB0E5B3CCD0F2202A2A2A2A2A0F
:1040C0002A2A2A2A2A2A200D0A000000347D000804
:1040D0002C00002000000000000000000000000094
:1040E0000000000000000018181818181808000830
:1040F0001800000000000034242424000000000008
:10410000000000000000000016247F2424247E24E8
:1041100024000000000000083E6848681C161212C7
:104120007C10100000000061D29674081016294916
:10413000C6000000000000003C646438724ACE46AD
:104140007F00000000000018181818000000000090
:10415000000000000000000408181030303030105B
:1041600010180C04000000201008080C0404040CB3
:1041700008181020000000080A341C6A080000001B
:10418000000000000000000000001818187F181838
:1041900018000000000000000000000000000018EF
:1041A000180830000000000000000000003C000083
:1041B00000000000000000000000000000000018E7
:1041C000180000000000000206040C08081010206F
:1041D00020400000000000003C6642475B734266DE
:1041E0003C00000000000000187848080808080893
:1041F0007E000000000000003C4606060408102077
:104200007E000000000000007C0606043C0202065E
:104210007C000000000000000C1C14246444FF0417
:1042200004000000000000007E6060607E02020664
:104230007C000000000000001E30604876424262B0
:104240003C000000000000007E0206040C0818106C
:1042500030000000000000003C6242361C66424212
:104260003C000000000000003C664242661A020466
:10427000780000000000000000001818000000187E
:1042800018000000000000000000181800000018CE
:104290001808300000000000000004183060100C06
:1042A0000600000000000000000000007E007E000C
:1042B00000000000000000000000301804060C1090
:1042C00020000000000000301C0606061810001038
:1042D000100000000000001C224141DDB5A5A5AF83
:1042E00094C0403C00000000181C342426627E4329
:1042F000C1000000000000007C4642467C42424271
:104300007C000000000000001E2040404040406053
:104310003E000000000000007C464243434342460A
:1043200078000000000000007E6060607E606060D9
:104330007E000000000000007E6060607E606060C3
:1043400060000000000000001E604040CE4242625B
:104350003E00000000000000424242427E424242D3
:1043600042000000000000007E18181818181818E5
:104370007E000000000000007C04040404040444E7
:1043800078000000000000004244485070584C443F
:1043900042000000000000002020202020202020DB
:1043A0003E000000000000006266675F5B5BC1C109
:1043B000C100000000000000626272525A4A4E467C
:1043C00046000000000000003C6243C3C3C34362D8
:1043D0003C000000000000007C464242467840401D
:1043E00040000000000000003C6243C3C3C34362BE
:1043F0003C180F00000000007C6662667C6C6466FE
:1044000062000000000000003E6040601C060202E6
:104410007C000000000000007F18181818181818F9
:104420001800000000000000424242424242426244
:104430003C00000000000000C14342622624341CFE
:104440001800000000000000C1C141495B5B7666B6
:10445000660000000000000043663418181C246643
:10446000C300000000000000C14266341C18181888
:1044700018000000000000007E02040C18102060EC
:104480007E0000000000001C101010101010101012
:104490001010101C000000402020101008080C0410
:1044A000060200000000003C0C0C0C0C0C0C0C0C68
:1044B0000C0C0C3C00000000181C246200000000E2
:1044C00000000000000000000000000000000000EC
:1044D000000000FF000000201000000000000000AD
:1044E000000000000000000000003C06023E4246C2
:1044F0007A0000000000004040405C6242424242BC
:104500007C0000000000000000001E2060406020D1
:104510003E0000000000000202023E62424242668B
:104520003A0000000000000000003C62427E406053
:104530003E0000000000000F1810107E1010101038
:10454000100000000000000000003F664266584076
:104550003E43423C0000004040405C6242424242D6
:104560004200000000000018180078080808080839
:104570007E000000000000040C007C04040404041D
:1045800004040C78000000606060626C78706864FD
:104590006200000000000078080808080808080801
:1045A0007E000000000000000000764B4B4B4B4BA0
:1045B0004B0000000000000000005C6242424242EA
:1045C000420000000000000000003C6242434262E2
:1045D0003C0000000000000000005C6242424242D9
:1045E0007C4040400000000000003E6242424266C3
:1045F0003A0202020000000000006E726360606018
:10460000600000000000000000003E20203C060288
:104610007C000000000000001010FE1010101010B0
:104620001E000000000000000000424242424266BC
:104630003A000000000000000000434266243418E5
:1046400018000000000000000000C1C15B5A5E6657
:104650006600000000000000000062261C181C26F6
:104660006200000000000000000043426624341C89
:10467000181830E00000000000007E060C18102022
:104680007E0000000000000E181010103070101096
:104690001010180E00000808080808080808080884
:1046A0000808080800000030180808080C0E080860
:1046B000080818300000000000000000714B0600E0
:1046C00000000000000000000000000000000000EA
:1046D00000000000000000000000000000000000DA
:1046E00000000000000000000000000000000000CA
:1046F0000000000000000000000000000000038037
:1047000001800180018001800180018001800180A1
:1047100001800000000003C003C000000000000092
:1047200000000000000000000000000000000E700B
:104730000E700E700C300000000000000000000041
:104740000000000000000000000000000000000069
:104750000000000000000000000000000000000059
:104760000618063806307FFE0C300C300C300C304A
:104770007FFE0C601C6018601860000000000000E4
:1047800000000000000000000000000000C000C0A9
:104790000FF83CC831C031803D801F8003F001F824
:1047A000031C030C031C3FF83FE007000600000059
:1047B0000000000000000000000000001C007E0E51
:1047C000630C631863307E6000C001800300077CC7
:1047D0000EE61CC618C630C6607C00000000000053
:1047E00000000000000000000000000000000FE0DA
:1047F0001CF0387038701C601FC00F003F8C71CCEB
:1048000060EC607C70383CFC1FCE000000000000B3
:10481000000000000000000000000000000003C0D5
:104820000180018001800000000000000000000005
:104830000000000000000000000000000000000078
:10484000000000000000000000000000003000E058
:1048500001C0018003000700060006000E000E00E4
:104860000E000E00060007000300038001C000E0F8
:104870000030000000000000000000000C000600F6
:104880000380018001C000E00060006000700070E3
:1048900000700060006000E000C00180038006003E
:1048A0000C0000000000000000000000000001807B
:1048B00011881DB803C007E03DBC018801800000DD
:1048C00000000000000000000000000000000000E8
:1048D00000000000000000000000000000000000D8
:1048E00000000000018001800180018001807FFEC6
:1048F00001800180018001800000000000000000B4
:1049000000000000000000000000000000000000A7
:104910000000000000000000000000000000000097
:104920000000000003C003C001C001C003801F00DD
:104930000000000000000000000000000000000077
:1049400000000000000000000000000000000FF068
:104950000000000000000000000000000000000057
:104960000000000000000000000000000000000047
:104970000000000000000000000000000000000037
:104980000000000003C003C003C0000000000000DE
:1049900000000000000000000000000000000018FF
:1049A00000380030006000E000C001C0018003005A
:1049B000030006000E000C001C0018003000000070
:1049C0000000000000000000000000000000018066
:1049D0000FF01C38381C301C707E70EE738E7E0E0B
:1049E0007C0C300C381C1E780FE00000000000002A
:1049F00000000000000000000000000000000000B7
:104A000007C01FC039C001C001C001C001C001C042
:104A100001C001C001C03FFC3FFC000000000000DD
:104A20000000000000000000000000000000038003
:104A30001FF018380038001800380038007001E006
:104A4000038007001C003FFC3FFC0000000000004A
:104A500000000000000000000000000000000780CF
:104A60001FF0003800380038003007E007F0003849
:104A7000001C001C001820F83FE0000000000000AF
:104A80000000000000000000000000000000000026
:104A900000F001B0033007300E301C303830703079
:104AA0007FFE7FFE0030003000300000000000007C
:104AB00000000000000000000000000000000000F6
:104AC0001FF818001800180018001FE000F8001C5C
:104AD000001C001C003800F01FC000000000000097
:104AE00000000000000000000000000000000000C6
:104AF00003F80F001C001800300037F83C3C300C65
:104B0000300C380C381C1E380FF00000000000007C
:104B10000000000000000000000000000000000095
:104B20003FFC001C001800380070006000E001C06D
:104B300001800380070006000E0000000000000056
:104B4000000000000000000000000000000003C0A2
:104B50001FF8381C381C381C1C380FF007F01C7864
:104B6000381C300C381C3C380FF0000000000000EE
:104B700000000000000000000000000000000380B2
:104B80001FF03838301C701C700C380C1FFC0FCC18
:104B9000001C001800701FE01F80000000000000D3
:104BA0000000000000000000000000000000000005
:104BB00000000000000003C003C0018000000000EE
:104BC0000000000003C003C003C00000000000009C
:104BD00000000000000000000000000000000000D5
:104BE00000000000000003C003C0018000000000BE
:104BF0000000000003C003C001C001C003800F001B
:104C000000000000000000000000000000000000A4
:104C100000000000003800F001C007001E0038004E
:104C20000E00078001C0007000300000000000008E
:104C30000000000000000000000000000000000074
:104C4000000000000000000000003FFC0000000029
:104C50003FFC3FFC000000000000000000000000DE
:104C60000000000000000000000000000000000044
:104C7000000000001C000F00038001E00078001C11
:104C8000007001E003800E000C0000000000000036
:104C900000000000000000000000000000000FC045
:104CA00000F0003800380038003803F003800300BB
:104CB00003000000000007800780000000000000E3
:104CC00000000000000000000000000000E007F805
:104CD0000C0C18063006700363F36633C673CC639E
:104CE000CC62CC66CCE6C7FCE000600070003810F7
:104CF0001FF00000000000000000000000000000A5
:104D000003C007E006E00E700E700C301C38181857
:104D10003FFC3FFC700E600EE0070000000000004A
:104D20000000000000000000000000000000000083
:104D30003FF03838381C381C38383FF03FF8381C02
:104D4000380C380C381C3FF83FE000000000000031
:104D5000000000000000000000000000000000E073
:104D600007FC1E043800380030007000700070002E
:104D7000300038003C001F9C07FC000000000000D1
:104D80000000000000000000000000000000000023
:104D90003FF03078301C300C300E300E300E300EBC
:104DA000300E301C30383FF03FC0000000000000E3
:104DB00000000000000000000000000000000000F3
:104DC0001FF818001800180018001FF81FF8180026
:104DD0001800180018001FF81FF80000000000005D
:104DE00000000000000000000000000000000000C3
:104DF0001FF818001800180018001FF81FF81800F6
:104E0000180018001800180018000000000000002A
:104E1000000000000000000000000000000000F0A2
:104E200007FC1E04380030007000700070FC700C2D
:104E3000700C300C380C1F1C07FC00000000000038
:104E40000000000000000000000000000000000062
:104E5000300C300C300C300C300C3FFC3FFC300C74
:104E6000300C300C300C300C300C00000000000016
:104E70000000000000000000000000000000000032
:104E80003FFC018001800180018001800180018060
:104E90000180018001803FFC3FFC00000000000019
:104EA0000000000000000000000000000000000002
:104EB0001FF0003000300030003000300030003093
:104EC0000030003000701DE01FC000000000000036
:104ED00000000000000000000000000000000000D2
:104EE000381C387038E039C03B803F003F003B80C1
:104EF00039C038E038703838381C00000000000035
:104F000000000000000000000000000000000000A1
:104F10001C001C001C001C001C001C001C001C00B1
:104F20001C001C001C001FFC1FFC000000000000F7
:104F30000000000000000000000000000000000071
:104F4000381C7C3C6C3E6E6E666E66CE63C66386B5
:104F500061866006600660066006000000000000D2
:104F60000000000000000000000000000000000041
:104F70003C0C3C0C3E0C360C330C338C318C31CC5D
:104F800030EC306C307C303C301C00000000000005
:104F9000000000000000000000000000000001C050
:104FA0000FF81C3C381C700E700E60066006700E08
:104FB000700E700C381C1E780FE00000000000001E
:104FC00000000000000000000000000000000000E1
:104FD0003FF0383C381C380C380C381C38783FE02F
:104FE00038003800380038003800000000000000A9
:104FF000000000000000000000000000000001C0F0
:105000000FF81C3C381C700E700E60066006700EA7
:10501000700E700C381C1E780FE0018001C000FF7C
:10502000003C000000000000000000000000000044
:105030003FF0383838183818383838F03FC038E082
:10504000387038383838381C380E0000000000003E
:10505000000000000000000000000000000001E06F
:105060000FF83800380038003C001F8003F000784B
:10507000001C001C001C38783FE00000000000000D
:105080000000000000000000000000000000000020
:105090007FFE01800180018001800180018001800C
:1050A000018001800180018001800000000000007B
:1050B00000000000000000000000000000000000F0
:1050C000300C300C300C300C300C300C300C300C00
:1050D000300C300C381C1C380FF0000000000000B1
:1050E00000000000000000000000000000000000C0
:1050F000E006700E700E381C381C1C181C380C3062
:105100000E70066007E003C003C00000000000004E
:10511000000000000000000000000000000000008F
:1051200060066006600660066186638673C673CE9D
:10513000766C366C3C3C3C3C381C000000000000A7
:10514000000000000000000000000000000000005F
:10515000301C38181C380E7007E003C003C007E08D
:105160000E701C381838381C700E0000000000004B
:10517000000000000000000000000000000000002F
:10518000700E700C381C1C380E70066007E003C0EF
:10519000018001800180018001800000000000008A
:1051A00000000000000000000000000000000000FF
:1051B0003FFC001C0038007000E001C003800700C5
:1051C0000E000C0018003FFC3FFC00000000000037
:1051D00000000000000000000000000007F007F0E1
:1051E000060006000600060006000600060006008F
:1051F000060006000600060006000600060006007F
:1052000007F000000000000000000000000018008F
:105210001C000C000600070003000380018001C091
:1052200000C000600070003000380018000C000062
:105230000000000000000000000000000FE00FE090
:10524000006000600060006000600060006000605E
:10525000006000600060006000600060006000604E
:105260000FE000000000000000000000000000004F
:1052700003C006C006600C301818301C0000000087
:10528000000000000000000000000000000000001E
:10529000000000000000000000000000000000000E
:1052A00000000000000000000000000000000000FE
:1052B00000000000000000000000000000000000EE
:1052C000FFFF0000000000000000000000001E00C2
:1052D000038000000000000000000000000000004B
:1052E00000000000000000000000000000000000BE
:1052F00000000000000000000000000000000000AE
:105300000000000000001FF01038001C001C0FFC03
:105310001C1C381C381C3CFC1FDC0000000000007A
:105320000000000000000000000000000000380045
:105330003800380038003BF83E1C3C1C380C380C58
:10534000380C380C381C3C781FE0000000000000CE
:10535000000000000000000000000000000000004D
:1053600000000000000007F80E001C0038003800A4
:10537000380038001C000F1807F80000000000007B
:105380000000000000000000000000000000001C01
:10539000001C001C001C0FFC1C1C381C301C301C8A
:1053A000301C301C383C1CFC0F9C0000000000002E
:1053B00000000000000000000000000000000000ED
:1053C0000000000000000FF01C38381C300C3FFCBF
:1053D0003000300038001E0C07FC00000000000008
:1053E000000000000000000000000000003C01FE82
:1053F00003800300030003007FFC7FFC0300030025
:10540000030003000300030003000000000000008D
:10541000000000000000000000000000000000008C
:105420000000000000000FFE1C383818381818382B
:105430001FF03B8030003FF01FFC300E700E381C18
:105440001FF800000000000000000000000038000D
:105450003800380038003BF83E383C1C381C381CFB
:10546000381C381C381C381C381C00000000000098
:10547000000000000000000000000000018003C0E8
:1054800003C0000000001FC001C001C001C001C076
:1054900001C001C001C001C03FFC000000000000CD
:1054A000000000000000000000000000002000706C
:1054B0000070000000003FF000700070007000708D
:1054C000007000700070007000700070007020E0CC
:1054D0003FC00000000000000000000000001800B5
:1054E000180018001800183C187018E01B801F00E6
:1054F0001B8019E018701838181C0000000000000C
:1055000000000000000000000000000000001FC0BC
:1055100001C001C001C001C001C001C001C001C083
:1055200001C001C001C001C03FFC0000000000003C
:10553000000000000000000000000000000000006B
:105540000000000000006F3C79EE71CE718E718E0C
:10555000718E718E718E718E718E00000000000050
:10556000000000000000000000000000000000003B
:105570000000000000003BF83E383C1C381C381C82
:10558000381C381C381C381C381C00000000000077
:10559000000000000000000000000000000000000B
:1055A0000000000000000FF01C3C381C700E700E54
:1055B000700E700C381C1E780FE000000000000018
:1055C00000000000000000000000000000000000DB
:1055D0000000000000003BF83E1C3C1C380C380C5E
:1055E000380C380C381C3C783FE038003800380064
:1055F0003800000000000000000000000000000073
:105600000000000000000FFC1C1C381C301C301C6B
:10561000301C301C383C1CFC0F9C001C001C001C67
:10562000001C00000000000000000000000000005E
:1056300000000000000019F81F1C1C0C180E1800B8
:1056400018001800180018001800000000000000E2
:10565000000000000000000000000000000000004A
:105660000000000000000FF81C0018001E000FC012
:1056700001F80018001818381FF0000000000000A2
:10568000000000000000000000000000000000001A
:105690000600060006007FFC060006000600060065
:1056A000060006000700078401FC0000000000005F
:1056B00000000000000000000000000000000000EA
:1056C000000000000000381C381C381C381C381C36
:1056D000381C381C383C1CFC0FDC000000000000AB
:1056E00000000000000000000000000000000000BA
:1056F000000000000000700C381C38181C380C30FA
:105700000E70066007E003C003C000000000000048
:105710000000000000000000000000000000000089
:10572000000000000000600660066186738E73CC86
:1057300033CC366C366C3C3C3C380000000000003A
:105740000000000000000000000000000000000059
:10575000000000000000381C1C380E7007E003C079
:1057600003C007E00E701C38381E00000000000067
:105770000000000000000000000000000000000029
:10578000000000000000700C381C38181C380C3069
:105790000E70066007E003C003C0038007000E0020
:1057A0007C0000000000000000000000000000007D
:1057B0000000000000001FF80038007000E001C089
:1057C000038007000C001FFC3FFC000000000000ED
:1057D000000000000000000000000000007801F858
:1057E0000380038003800380038003003F003E00AA
:1057F000030003800380038003800380038001C0D3
:1058000000F800000000000001800180018001809C
:105810000180018001800180018001800180018080
:105820000180018001800180018001800180018070
:105830000180000000000000000000001E001F802A
:10584000018001C001C001C001C000C000FC007C9B
:1058500000C001C001C001C001C001C001C003807F
:105860001F00000000000000000000000000000019
:10587000000000000000000000001C003F0671CE88
:1058800060FC0000000000000000000000000000BC
:105890000000000000000000000000000000000008
:1058A00000000000000000000000000000000000F8
:1058B00000000000000000000000000000000000E8
:1058C00000000000000000000000000000000000D8
:1058D00000000000000000000000000000000000C8
:1058E00000000000000000000000000000000000B8
:1058F00000000000000000000000000000000000A8
:10590000000000000000003C00003C00003C0000E3
:105910003C00003C00003C00003C00003C00003C1F
:1059200000003C00003C00003C00003C00003C004B
:10593000000000000000003C00007E00003C000071
:105940000000000000000000000000000000000057
:105950000000000000000000000000000000000047
:1059600000000000000003C3E003C3E003C3C00362
:10597000C3C003C3C003C3C003C1C0000000000014
:105980000000000000000000000000000000000017
:105990000000000000000000000000000000000007
:1059A00000000000000000000000000000000000F7
:1059B00000000000000000000000000000000000E7
:1059C00000000000000000000000000001E0E00115
:1059D000C0E001C0E001C0E03FFFFE3FFFFE03C1A9
:1059E000C00381C00381C00381C07FFFFC7FFFFC37
:1059F0000783800703800703800703800707800071
:105A00000000000000000000000000000000000096
:105A10000000000000000000000000000000000086
:105A2000000000000700000F00000E0001FFF0075B
:105A3000FFF01F0E001E1E001E1C001E1C000FDCAF
:105A40000007FC0000FF80003FF00038F8003878C5
:105A500000783C0070783071F83FFFE01FFF0000D5
:105A6000E00000E00000E000000000000000000096
:105A70000000000000000000000000000000000026
:105A80000000000000000F800F3FE01E78703C70A7
:105A900070707070E07071C03FE3801FC700000E2F
:105AA00000001C0000780000F0F001E7FC03CF0EBE
:105AB000078E0E0F0E0E1E0E0E3C07BC7003F80074
:105AC00000000000000000000000000000000000D6
:105AD00000000000000000000000000000000000C6
