:020000040800F2
:100000007065002045010008B52700086719000841
:10001000B1270008AD0200089D3A0008000000006A
:100020000000000000000000000000008D38000803
:10003000B102000800000000AB0100087939000897
:100040005F0100085F0100085F0100085F01000810
:100050005F0100085F0100085F0100085F01000800
:100060005F0100085F0100085F0100085F010008F0
:100070005F0100085F0100085F0100085F010008E0
:100080005F0100085F0100085F0100085F010008D0
:100090005F0100085F0100085F0100085F010008C0
:1000A0005F0100085F0100085F0100085F010008B0
:1000B0005F0100085F0100085F0100085F010008A0
:1000C0005F0100085F0100085F0100085F01000890
:1000D0005F0100085F0100085F0100085F01000880
:1000E0005F0100085F0100085F0100085F01000870
:1000F0005F0100085F0100085F0100085F01000860
:100100005F0100085F0100085F0100085F0100084F
:100110005F0100085F0100085F0100085F0100083F
:100120005F0100085F0100085F0100085F0100082F
:10013000DFF80CD000F09CF800480047315C000864
:10014000706500200648804706480047FEE7FEE746
:10015000FEE7FEE7FEE7FEE7FEE7FEE7FEE7FEE777
:10016000013A000831010008EFF3108072B67047C1
:1001700080F3108870471D484FF0FF010170002088
:1001800080F309881A48012101701A484FF0805104
:10019000016062B6FEE717484FF08051016070477A
:1001A00014484FF080510160704772B6EFF3098038
:1001B00028B1203880E8F00F0F490968086000B5C1
:1001C0000E4880475DF804EB0D480E490A7802702E
:1001D00009480D490A680260106890E8F00F203065
:1001E00080F309884EF0040E62B6704722ED00E0FD
:1001F0005600002004ED00E05C000020A92F00085C
:100200004B0000204C0000206400002010B5431A71
:10021000934209D28318881803E010F8011D03F8EF
:10022000011D521EF9D210BD40EA01039B0703D005
:1002300009E008C9121F08C0042AFAD203E011F825
:10024000013B00F8013B521EF9D210BDD2B201E0D1
:1002500000F8012B491EFBD270470022F6E710B5CB
:1002600013460A4604461946FFF7F0FF204610BD24
:10027000064C074D06E0E06840F0010394E80700F3
:1002800098471034AC42F6D3FFF756FF20CE010852
:1002900040CE010801E002F06FFAFCE710B503F070
:1002A000AFFB03F07DFB00F04DFC10BD00BFFEE78F
:1002B000704700002DE9F0470746894614461D4661
:1002C000DDF820802148007B00F00200E0B9B8F1A1
:1002D000000F0DD009E0268838F816204946384628
:1002E00002F085F96D1E7F1CA41C002DF3DC2AE0B2
:1002F00007E022884946384602F079F96D1E7F1CD6
:10030000A41C002DF5DC1EE0B8F1000F0ED00AE0B1
:1003100026882EB138F816204946384602F067F98B
:100320006D1E7F1CA41C002DF2DC0CE009E0268869
:1003300026B132464946384602F059F96D1E7F1CF7
:10034000A41C002DF3DCBDE8F087000080510020E4
:1003500051B18200A2F1C042126842F00103820052
:10036000A2F1C042136009E08200A2F1C04212680B
:10037000034B1A408300A3F1C0431A60704700008A
:10038000FEFF0F00D0E901121143C2681143026958
:1003900011434269114382691143C2691143026AE0
:1003A0001143426A1143826A1143C26A1143026BCC
:1003B000114302689200A2F1C042116081680829CD
:1003C0000BD101688900A1F1C041096841F04002E8
:1003D00001688900A1F1C0410A60416B0968426B64
:1003E000526841EA0211426B926841EA0221426B73
:1003F000928941EA0241426B128A41EA0251426B00
:10040000127D41EA0261426B926911430268521CFB
:100410009200A2F1C0421160C16AB1F5804F1BD1B8
:10042000816B0968826B526841EA0211826B9268A3
:1004300041EA0221826B128A41EA0251826B127DEB
:1004400041EA0261826B9269114302689200A2F153
:10045000C042C2F8041107E06FF0704201688900E1
:10046000A1F1C041C1F80421704700002DE9F0431B
:1004700087B004460E461746D4F80C80002000F0E2
:10048000C9FF0546B8F1000F05D098F8041011B166
:1004900045F0020101E025F00201084600F0BAFF34
:1004A000206970B10122D4E902018DE807000392AE
:1004B0006388228820693946D0F800C03046E0477A
:1004C0001EE0E06801F061FF8146B9F1000F06D13E
:1004D000E088012801D0002000E00C488146A18876
:1004E000E288A068CDE90409CDE90221012000904D
:1004F0000190638822883946304601F083FD00BFB1
:10050000284600F087FF07B0BDE8F0838051002047
:1005100010B5002000F06AFF6FF07F4000F070FF20
:10052000012000F0A1FF002000F0ACFF002000F04F
:10053000B9FF002000F06EFF034800F077FF0020B5
:1005400000F084FF10BD000010CC01082DE9F0413F
:10055000024600250026002000230024002791F8F1
:1005600003C00CF00F0591F803C00CF0100CBCF1A7
:10057000000F03D091F802C04CEA050591F800C0C5
:10058000BCF1000F31D0146800202BE04FF0010CBB
:100590000CFA00F3B1F800C00CEA03069E4220D129
:1005A00083004FF00F0C0CFA03F7BC4305FA03FC71
:1005B0004CEA040491F803C0BCF1280F06D14FF0B7
:1005C000010C0CFA00FCC2F814C00AE091F803C058
:1005D000BCF1480F05D14FF0010C0CFA00FCC2F839
:1005E00010C0401C0828D1D31460B1F800C0BCF181
:1005F000FF0F34DD546800202EE000F1080C4FF0AE
:10060000010808FA0CF3B1F800C00CEA03069E4298
:1006100021D183004FF00F0C0CFA03F7BC4305FA0D
:1006200003FC4CEA040491F803C0BCF1280F05D187
:1006300000F1080C08FA0CF8C2F8148091F803C015
:10064000BCF1480F07D100F1080C4FF0010808FA7F
:100650000CF8C2F81080401C0828CED35460BDE8C6
:10066000F081416170470161704700002DE9F04F52
:100670008BB005465C48B0F922000A905A48B0F9A0
:1006800024A080698469B4F80C80A84509DCE0895D
:10069000A84206DBD4F80090A5EB08064FF0FF3720
:1006A0001DE0A068D4F80490A8B1B0F80080A84577
:1006B0000DDC4188A9420ADB0288AA1A95B241687A
:1006C00001EB8501B1F90060B1F9027006E04FF06D
:1006D000FF36374602E04FF0FF36374600BF701C4A
:1006E000002877D040488069007DA17C484309906C
:1006F000207C08903C488069007D07903A48B0F91A
:100700002AB0584601F0F6FFC0B20690364A099862
:1007100006FB0090A17C0123CDE90231CDE9040262
:1007200010468069C07D11468969897DCDE9001038
:100730005146DDE907320A9801F064FC781CD8B113
:100740004BF0020001F0D6FF274A099807FB009002
:10075000A17C0123CDE90231CDE904021046806974
:10076000C07D11468969897DCDE900105146DDE9DA
:1007700007320A9801F046FC1B488069407D1A49FF
:100780008969097D884221DDBBF1020F1ED08BF003
:10079000040001F0AFFF14488069007DDFF848C015
:1007A000DCF818C09CF815C000FB0CA10E4880694D
:1007B000407D00EB0A030C48806990F816E0DDF8F4
:1007C00020C00A980CFB0E0201F09AFD069801F079
:1007D00091FF00BF0448408C617C084400B202498C
:1007E00048840BB0BDE8F08F8051002001460348DB
:1007F0008069826900BF507C7047000080510020F2
:1008000000BF02220A80704730B50446A26995896C
:100810008D4204DCD089884201DB012030BD936821
:100820003BB11888884204DC5888884201DB0120EB
:10083000F4E700BF0020F1E710B5002414E004EB5A
:10084000C40101EB04110A4A02EB8101081D602278
:100850000849FFF7DBFC002004EBC40101EB0411A5
:10086000034A42F82100641C042CE8DB10BD0000A0
:10087000E05100208051002010B54FF0FF300249B8
:10088000086000F097FF10BD0C01002070B5044611
:100890000CB9002070BD00F06DF9204603F080FD1A
:1008A000054600F059FF2846F4E770B5044600F00D
:1008B00061F92046FFF7EAFF05463DB1284600F002
:1008C00069F806462246002100F0FBFF00F044FFD5
:1008D000284670BD10B5044604B910BD00F04AF9B1
:1008E000204604F079FE00F037FF00BFF5E7000076
:1008F0002DE9F041002700F03DF903F0CBFD002584
:1009000010E0154830F83500134901EBC50149885E
:100910000844114931F83610081A04B2BC4200DD0F
:10092000274635460C4800EBC5008688002EE8D1E6
:10093000094830F83500084901EBC50149880844E9
:1009400043F2D401081A04B2BC4200DD274600F08D
:1009500003FF3846BDE8F0812C45002040F28710A7
:1009600009494860886043F2D400C88108820020A9
:10097000086088810420054948800020088088801C
:1009800001200349087070476C5100202C4500205D
:10099000F4000020014609B900207047024830F9F0
:1009A0003100024A1044F8E72C450020581400207A
:1009B00010B50021084600F0B3F840F6FF731A4660
:1009C0005942084600F002F810BD00002DE9FC4134
:1009D00004460D4616461F4600F0CCF8042001F0F0
:1009E00089FE80461648006C04441548406C054456
:1009F0001348006C06441248406C074420B2ADF81E
:100A0000000030B2ADF8040028B2ADF8020038B2F0
:100A1000ADF80600684603F087FB50B100BF3B46C7
:100A200032462946204601F06BFC03F039FB0028D2
:100A3000F5D1404601F05EFE00F08EFEBDE8FC817F
:100A40008051002070B5054600F066F8461909E0AF
:100A500000F046F8052C01DD052100E0214608469E
:100A600000F086FE00F058F8341A002C01DD012059
:100A700000E000200028EBD170BD00007CB50446EA
:100A80000D46164600F076F81448006C05441348ED
:100A9000406C064428B2ADF8000021880844401E8E
:100AA00000B2ADF8040030B2ADF80200618808442D
:100AB000401E00B2ADF80600684603F035FB48B1B1
:100AC00000BF324629462046FFF7D0FC03F0E8FA83
:100AD0000028F6D100F040FE7CBD000080510020CF
:100AE00010B5002400E0012400F004F80028FAD139
:100AF000204610BD10B500240648006820B1054806
:100B00000068804700B1012403F0E5F800B101243A
:100B1000204610BDFC00002010B500F03DFE10BDC9
:100B200070B506460C4600F025F8304604F0ECFDA2
:100B30000546204604F0F0FD054300F00DFE284672
:100B400070BD000010B52E200849087000F028FE86
:100B5000074804F0E9FDFFF78FFE01F05DFC044655
:100B600003F006F9FFF768FE204610BDF8000020EC
:100B70008051002010B52348006830B900F02AFEEB
:100B800000F002FE204908600BE000F0FDFD1E4968
:100B90000968884205D000F01DFE00F0F5FD1A49F5
:100BA000086018480068401C16490860012827D1D1
:100BB00004F072FD04461548006884421FD01348B3
:100BC0000068002819DB1149096801EBC10202EB3A
:100BD00001110F4A02EB8101081D60220D49FFF748
:100BE00015FB04EBC40000EB0410094A02EB800083
:100BF000011D60220748FFF709FB0448046000BF9D
:100C000010BD000010010020140100200C01002084
:100C1000E0510020805100202DE9F041044634B914
:100C20000E48B0F94C00041E01D1BDE8F081FFF779
:100C3000A1FF2046FFF7AEFE0746B7F9185045B1B1
:100C40002846FFF7A7FE0646B06881683046884709
:100C500000BF00F081FD00BFE7E7000080510020E9
:100C600010B50446024A1146204600F003F810BDB4
:100C700001F0FFFF2DE9FC4106460D461746002E08
:100C800039D0FFF777FF1D48B0F94C803046FFF7A9
:100C900081FE044600F09EFB1948854203D1B4F959
:100CA0000050B4F9027028B2ADF80000A1880844E1
:100CB000401E00B2ADF8040038B2ADF80200E18881
:100CC0000844401E00B2ADF8060002F0E9FE684696
:100CD00003F02AFA48B100BF3A462946304600F0F0
:100CE00045FA03F0DDF90028F6D1404600F01AF984
:100CF00000F032FD00BFBDE8FC8100008051002003
:100D000001F0FFFF2DE9FF4F85B081468A46FFF7CE
:100D100031FF1748D0F800B01648B0F84C0048B979
:100D20001448806C04681348806C45681148806CD6
:100D3000866809E00F49B1F94C00FFF72BFE074622
:100D4000FC693D6A7E6A00BFDBF8380001A971C109
:100D50001298009051464846DDE9072300F052F909
:100D6000804600F0F9FC404609B0BDE8F08F000075
:100D7000180100208051002070B50546FFF7FAFEEB
:100D8000A5B10C48B0F94C00A84201D100F022FBFB
:100D90002846FFF7FFFD0446208B18B1B4F9180070
:100DA00000F0C6FC2846FFF795FD00BF00F0D4FC1C
:100DB00070BD0000805100202DE9FF4F85B0044632
:100DC0008B461F466CB3B4F90000002801DA0020FE
:100DD00001E0B4F900008046B4F90200002801DA0D
:100DE000002001E0B4F90200814601F0C9FA461E74
:100DF000B4F90400314604F005FD049001F0C2FA94
:100E0000461EB4F90600314604F0FCFC0390049839
:100E1000A0EB080000F1010A0398A0EB0900451CB3
:100E200008E04FF00008C14601F0AAFA824601F03E
:100E3000A9FA054607B96F42BAF1000F01DD002D8E
:100E400003DC002009B0BDE8F08F12983B46524603
:100E5000494600904046FFF755FF0290029818B9A6
:100E60000798D8470120EDE7029800F029F80746D7
:100E7000029800F057F8002618E0A81B019001988E
:100E8000B84203DADDE9011000F030F846B109EBB1
:100E900006024146029800F071F80298FFF7BCFE86
:100EA0000798D8470298FFF7DBFE3E44AE42E4DBEA
:100EB0000298FFF761FF002000F034F80020C1E73E
:100EC00070B504460026FFF755FE14B90648B0F980
:100ED0004C402CB12046FFF75DFD0546B5F9066094
:100EE00000F03AFC304670BD8051002070B50446D9
:100EF0000D4614B90A48B0F94C4004B970BDFFF76B
:100F000039FE2046FFF746FD0646B6F90600A84220
:100F100001DD28B2F08000F01FFC00BFEEE700000A
:100F20008051002070B50446FFF724FE1248B0F946
:100F30004C5014B900F04EFA19E02046FFF72AFD94
:100F4000064602F087FE0C48B0F84C0030B90A485B
:100F50004E3009494A680260896841600648A0F835
:100F60004C400549B06A886401F09CFB00BF00F06A
:100F7000F3FB284670BD0000805100202DE9F041B0
:100F800080460E461746B8F1000F07D11548B0F954
:100F90004C00B0F1000801D1BDE8F081FFF7EAFD97
:100FA0004046FFF7F7FC044638B2608030B220803C
:100FB00001F078FB208B88B1B4F91800FFF7EAFC48
:100FC0000546B4F90400A88038B1B4F90600E880F9
:100FD00018B130B2288038B2688000BF00F0BCFB86
:100FE00000BFD9E78051002070B504460449B1F92B
:100FF0004C00FFF7CFFC05462046E969884770BDE5
:10100000805100202DE9FF4F83B090461D46DDF84A
:1010100040904FF0000A1198C06B0290029908FBB3
:1010200001F0C01D4FEAD00BFFF762FC064609F045
:10103000010030B93046F11706EB9171891001EBD0
:101040004106002D0BDCA6F12C01B1FBFBF069423F
:10105000884201DD694200E001460D4600BF09F00B
:10106000010040B900202B4642460090DDE9030113
:1010700000F0BAFA8246002D05DC00F06DFB00207E
:1010800007B0BDE8F08F05FB0BF000F12C0609F06E
:10109000010020B130B2FFF7F9FB074603E030B2A0
:1010A000FFF703FC074617B33846FFF773FC044607
:1010B000039800B22080049800B260800FFA88F094
:1010C000A08028B2E08001F058F9A060C4F80CB00C
:1010D000A4F818A01298E061139820621498606236
:1010E0001198A062029820610020606105E0BAF1C9
:1010F000000F02D05046FFF7EDFB3846C0E7000076
:1011000010B50449B1F94C00FFF744FC0446606A8D
:10111000804710BD8051002070B505460B49B1F9DC
:101120004C00FFF737FC04462088288060886880E0
:101130002088A1880844401E00B2A8806088E18809
:101140000844401E00B2E88070BD000080510020BD
:1011500070B504460449B1F94C00FFF71BFC054685
:101160002046296A884770BD805100202DE9F74F3D
:101170008CB092460C98FFF70DFC0546B5F91800A7
:101180000B90B5F906000A90EF68D5F810B04FEA59
:10119000DB00099005F12C080B9800285FD00B9814
:1011A000FFF7F8FB0646002455E000200890B068E1
:1011B000224608A94369304698478146B5F904009C
:1011C000484523D1079400E0641CB068621C08A95C
:1011D0004369304698474845F6D00020CDE902B72C
:1011E000CDE904800120009001900798201A431C4B
:1011F000B5F9042007980AEB00010D9800F002FFF2
:101200000798201A401C00FB078823E01EE00021FD
:10121000DDE9082002FB0080CDE902B7CDE9040139
:10122000012000900AEB04010190089B0D9AD01850
:1012300001234A4600F0E6FE089848440890B0684A
:10124000224608A94369304698478146B9F1000F04
:10125000DDD1B844641C0A988442A6DB0EE000206D
:10126000CDE902B7CDE90480012000900190B5F9E5
:10127000042051460A9B0D9800F0C4FE0FB0BDE853
:10128000F08F10B570B371B36AB3B1F90030B2F931
:101290000040A34202DDB2F9003001E0B1F90030B4
:1012A0000380B1F90230B2F90240A34202DDB2F983
:1012B000023001E0B1F902304380B1F90430B2F9F3
:1012C0000440A34202DDB1F9043001E0B2F9043078
:1012D0008380B1F90630B2F90640A34204DDB1F9CA
:1012E000063003E00CE003E0B2F90630C38010BD25
:1012F00009B10B4600E013461C6804605B6843605C
:1013000000BFF4E778B103880B441BB203808388E5
:101310000B441BB28380438813441BB24380C388B1
:1013200013441BB2C380704770B50024FFF722FC42
:101330000D48006898B10C480068401E0A490860D2
:101340000A4805684168284602F0B6FD074840682B
:10135000012802D1284600F0B5F8012400BF00F0B2
:10136000FBF9204670BD0000E0000020E4000020F2
:101370000246B2F90200B1F90630984213DCB1F925
:101380000200B2F9063098420DDCB2F90000B1F962
:101390000430984207DCB1F90000B2F904309842F9
:1013A00001DC012070470020FCE7000010B5044676
:1013B000602221460148FEF729FF10BD8051002020
:1013C00010B50446602202492046FEF71FFF10BDFB
:1013D0008051002010B5FFF7CDFB01F023F901F09B
:1013E000B9F902F05DFB00F0B7F910BD10B5044685
:1013F000FFF7C0FB204601F027F900F0ADF910BD62
:1014000010B50446FFF7B6FB204601F055F900F091
:10141000A3F910BD70B50446FFF7ACFB204601F000
:1014200069F9054600F098F9284670BD70B5044684
:1014300005488569FFF79EFB0CB10348846100F005
:101440008BF9284670BD00008051002070B504461D
:10145000FFF790FB0348857D847500F07DF92846F1
:1014600070BD00008051002070B50446FFF782FB7C
:101470000348057D047500F06FF9284670BD000033
:101480008051002070B50446FFF774FB0448B0F9A2
:101490002C5020B20249888500F05EF9284670BDC4
:1014A0008051002070B50446FFF764FB0448B0F992
:1014B0002A5020B20249488500F04EF9284670BDF6
:1014C000805100200249096809B901490860704744
:1014D000EC0000202DE9F04104460E4615461F465B
:1014E000DDF8188000BF2A466D1CA0683B463146D7
:1014F000D0F804C02046E047A8F10100B0F1000890
:10150000F1D1BDE8F0812DE9FF4F81B005460E46CF
:1015100091462F46B7F90000361A07F11404B7F9BF
:101520000200A9EB0000396900FB014404EBE6046A
:1015300004983044401E00900098C010A0EBE608CC
:1015400006F00701FF2040FA01FA009800F00700BA
:10155000C0F10701FF20884000F0FF0BB8F1000F39
:1015600005D120780AEA0B010843207013E02078A7
:1015700040EA0A0004F8010BA8F10100B0F10008EC
:1015800005DDFF2241462046FEF760FE44442078F8
:1015900040EA0B00207005B0BDE8F08FF0B51446AE
:1015A0000346B3F90050491B03F11402B3F902508A
:1015B000651B1E6905FB062202EBE102157801F0AE
:1015C000070780263E4135431570F0BD70B50446CF
:1015D0002546B5F906002A6900FB02F105F1140061
:1015E000FEF73BFE70BD00002DE9F84F0746884628
:1015F00015461E46DDF828B000BF05F10F000011AA
:101600004FEA400906FB09F014300090009800B240
:10161000FFF74BF98246BAF1000F02D10020BDE876
:10162000F88FFFF7A7FA5046FFF7B4F9044638B22F
:1016300020800FFA88F0608028B2A08030B2E0806D
:101640000448A0600120A081C4F8109000F084F844
:101650005046E4E708CE01082DE9F04705460F465D
:10166000944639682E46B6F9049006F11402B6F98C
:101670000600604502DC0020BDE8F08730690CFB05
:10168000002202EBE102494501DB0020F4E7A9F169
:101690000100C010A0EBE10812F8010B01F0070AED
:1016A00000FA0AF0C3B20CE0B8F1000F01D100203B
:1016B000E2E712F8013BA8F1010801F1080020F06F
:1016C0000701002BF0D002E05806030E491C03F07E
:1016D00080000028F8D0FF2B09D00C4602E0580605
:1016E000030E641C03F040000028F8D100E0CC1D7C
:1016F00004F00700072817D110E012F801AB534699
:10170000BAF1FF0F01D1083408E002E05806030ED9
:10171000641C03F080000028F8D104E0A8F1010067
:10172000B0F10008E9DA00BF3960601A401CA3E795
:1017300070B50546FFF71EFA2846FFF72BF9044659
:10174000A089401E00B2A08110B92846FFF7C2F858
:1017500000F002F870BD000010B504480068401E9B
:101760000249086008B900F03FF810BD10010020E0
:1017700070B504464FF47A7060436421B0FBF1F514
:10178000A8B201F013FC70BD0248006890F8320066
:10179000704700005C00002010B501F043FC10BD54
:1017A00010B5002001F092F80149086010BD00005A
:1017B0008000002010B5012001F088F8034908607E
:1017C000002001F059F80249086010BD780000209F
:1017D0007C00002008B56A4600210248006801F03C
:1017E0009FF808BD7800002010B50248006801F09D
:1017F0000DF910BD78000020B0F90020B1F90030DB
:101800009A4201DA0A880280B0F90220B1F9023066
:101810009A4201DA4A884280B0F90420B1F90430D2
:101820009A4201DD8A888280B0F90620B1F906303B
:101830009A4201DDCA88C280704710B50346B1F9EB
:101840000000B2F90040A04202DDB1F9000001E061
:10185000B2F900001880B1F90200B2F90240A042CA
:1018600002DDB1F9020001E0B2F902005880B1F9DD
:101870000400B2F90440A04202DDB2F9040001E024
:10188000B1F904009880B1F90600B2F90640A0420F
:1018900002DDB2F9060001E0B1F90600D880B3F923
:1018A0000400B3F90040A04201DA002010BDB3F9F2
:1018B0000600B3F90240A04201DA0020F6E7012059
:1018C000F4E770B503460D4602E003F8015B521ED3
:1018D0001AB103F003000028F7D19108A9B102F072
:1018E000030205EB054606EB0624184604E010C08B
:1018F00010C010C010C0091F0429F8DA01E010C0A0
:10190000491E0029FBD1034600BF02E003F8015B3A
:10191000521E002AFAD170BD70B503460C4615461A
:1019200003F0020010B123F8024B6D1E6908A9B143
:1019300004EB04421846042909DB00BF0260426040
:101940008260C26010300E1F3146042EF6DA01E0CC
:1019500004C0491E0029FBD1034600BF05F0010069
:1019600000B11C8070BD00BFFEE7000010B504464A
:101970002CB14FF480510548FEF773FE04E04FF49C
:1019800080510248FEF76FFE10BD000000140140B8
:1019900001B502E00098401E009000980028F9D19F
:1019A00008BD00B597B00121080201F04FFF0120EA
:1019B000019004200390800607900020029004907C
:1019C000059006900890099008200A9010200B902E
:1019D00000200C900E900F9010904FF480501190BA
:1019E000002012901390149001A81590169008A84A
:1019F000FEF7C8FC01210020FEF7AAFC17B000BDCD
:101A000070B504460D4600262C2000F0D9FA00BF20
:101A100003E0284600F0D8FA761CA642F9D370BD40
:101A200008B50121602001F021FF03208DF802009C
:101A300018208DF803004FF48040ADF8000069468F
:101A40005B48FEF783FD4FF40040ADF800006946A7
:101A50005748FEF77BFD0120ADF800006946544869
:101A6000FEF774FD0220ADF8000069465048FEF70D
:101A70006DFD8020ADF8000069464E48FEF766FD1A
:101A80004FF48070ADF8000069464A48FEF75EFDED
:101A90004FF40070ADF8000069464648FEF756FD69
:101AA0004FF48060ADF8000069464248FEF74EFDF5
:101AB0004FF40060ADF8000069463E48FEF746FD71
:101AC0004FF48050ADF8000069463A48FEF73EFDFD
:101AD0004FF40050ADF8000069463648FEF736FD79
:101AE0004FF48040ADF8000069463248FEF72EFD05
:101AF0004FF40040ADF8000069462E48FEF726FD81
:101B00004FF48070ADF8000069462948FEF71EFDCD
:101B10004FF40070ADF8000069462548FEF716FD49
:101B20004FF48060ADF8000069462148FEF70EFDD5
:101B300003208DF8020018208DF803001020ADF866
:101B4000000069461A48FEF701FD2020ADF80000AC
:101B500069461748FEF7FAFC8020ADF80000694698
:101B60001348FEF7F3FC4FF40060ADF8000069463F
:101B70000F48FEF7EBFC10208DF8030003208DF8D2
:101B800002000220ADF8000069460A48FEF7DEFCBC
:101B900010208DF8030003208DF802004FF48050D0
:101BA000ADF8000069460248FEF7D0FC08BD000011
:101BB000001401400018014070B504460D46294646
:101BC000204600F0F3F900F0C1F90646304670BD3A
:101BD00010B50446072C00DD10BD284804702046CF
:101BE00004EBD0714910A4EB410139B9F02024492C
:101BF00008804FF4A0702349088006E04FF4A070DD
:101C00001F490880F0201F490880362000F0D8F9CD
:101C1000082141EA441000F0D7F92A2000F0D0F959
:101C2000002000F0D1F9002000F0CEF91449098815
:101C3000491EC1F3072000F0C7F911490978491E70
:101C4000C8B200F0C1F92B2000F0BAF9002000F072
:101C5000BBF9002000F0B8F90A490988491EC1F310
:101C6000072000F0B1F907490978491EC8B200F011
:101C7000ABF92C2000F0A4F900BFADE790000020E4
:101C80008C0000208E00002010B5FFF7C9FEFFF782
:101C900088FE0120FFF76AFE00F074F900F038F8C2
:101CA00002480078FFF794FF10BD0000900000206C
:101CB0002DE9F04104460D4616461F462A2000F045
:101CC0007FF9201200F080F9E0B200F07DF9A1194F
:101CD000491EC1F30F2000F077F9A119491EC8B2BF
:101CE00000F072F92B2000F06BF9281200F06CF96B
:101CF000E8B200F069F9E919491EC1F30F2000F0BC
:101D000063F9E919491EC8B200F05EF9BDE8F08137
:101D100010B5CF2000F054F9002000F055F98120D3
:101D200000F052F9302000F04FF9ED2000F048F9B2
:101D3000642000F049F9032000F046F9122000F079
:101D400043F9812000F040F9E82000F039F98520BE
:101D500000F03AF9102000F037F9782000F034F95B
:101D6000CB2000F02DF9392000F02EF92C2000F0C6
:101D70002BF9002000F028F9342000F025F902208A
:101D800000F022F9F72000F01BF9202000F01CF9E8
:101D9000EA2000F015F9002000F016F9002000F00C
:101DA00013F9B12000F00CF9002000F00DF91B2010
:101DB00000F00AF9B62000F003F90A2000F004F957
:101DC000A22000F001F9C02000F0FAF8352000F060
:101DD000FBF8C12000F0F4F8112000F0F5F8C52060
:101DE00000F0EEF8452000F0EFF8452000F0ECF8A8
:101DF000C72000F0E5F8A22000F0E6F8F22000F09D
:101E0000DFF8002000F0E0F8262000F0D9F80120EB
:101E100000F0DAF8E02000F0D3F80F2000F0D4F85A
:101E2000262000F0D1F8242000F0CEF80B2000F09E
:101E3000CBF80E2000F0C8F8092000F0C5F85420B7
:101E400000F0C2F8A82000F0BFF8462000F0BCF86F
:101E50000C2000F0B9F8172000F0B6F8092000F0C7
:101E6000B3F80F2000F0B0F8072000F0ADF8002024
:101E700000F0AAF8E12000F0A3F8002000F0A4F898
:101E8000192000F0A1F81B2000F09EF8042000F0BB
:101E90009BF8102000F098F8072000F095F82A2011
:101EA00000F092F8472000F08FF8392000F08CF80D
:101EB000032000F089F8062000F086F8062000F0E4
:101EC00083F8302000F080F8382000F07DF80F20F3
:101ED00000F07AF8362000F073F8C82000F074F8AB
:101EE0002A2000F06DF8002000F06EF8002000F0CD
:101EF0006BF8002000F068F8EF2000F065F82B2068
:101F000000F05EF8002000F05FF8002000F05CF8C0
:101F1000012000F059F83F2000F056F83A2000F078
:101F20004FF8552000F050F8112000F049F8034810
:101F3000FFF72EFD292000F043F810BDFCBF020082
:101F400001480088704700000000026070B500245E
:101F5000002500262E2000F033F8FFF7F1FF04469D
:101F6000FFF7EEFF0446FFF7EBFF0646FFF7E8FF3B
:101F70000546E012C002A91240EA411040EAE620FC
:101F800070BD000010B502210748FEF76AFB40F65D
:101F9000FF20FFF7FDFC02210348FEF764FB40F63B
:101FA000FF20FFF7F5FC10BD0018014070B5044696
:101FB0000D4601231A4629462046FFF779FE70BDDB
:101FC0004FF0C04108807047014908807047000009
:101FD0000000026010B504460248806C016820468B
:101FE000884710BD8051002010B50146C1F3C402DE
:101FF000C1F38523C1F3C44404EB431000EBC220BA
:1020000010BD00002DE9FF4F8BB0054690461F46DE
:10201000DDF860A0DDF868901C9E00200A908648DC
:10202000006898B11B991D98CDE90291CDE9046033
:102030001998CDE900A0804800683B4642460468F4
:1020400028460C99A0470FB0BDE8F08F0C98384493
:10205000401E089005EB0800401E099019984AEAB6
:10206000000001287BD17548B0F906100C980C1AB5
:10207000002C0ADD3F1B002F00DCE4E76F48B0F9BD
:1020800006000C901B9804FB00666C48B0F90A101F
:102090000898441A002C03DD3F1B002F00DCD2E718
:1020A0006648B0F908100998441A002C01DDA8EB25
:1020B000040800246148B0F90400A84239DD5F48F3
:1020C000B0F90400441BA8EB0408B9F1040F1ED0BA
:1020D00006DCB9F1010F0AD0B9F1020F28D10EE0E8
:1020E000B9F1080F1BD0B9F1100F21D11BE006EB9D
:1020F000E406E01005EBC00504F0070418E006EB69
:10210000A406A01005EB800504F0030410E006EB24
:102110006406601005EB400504F0010408E0264465
:102120002544002404E006EB44062544002400BFB7
:1021300000BFB8F1000F00DC85E71B991D98CDE9C1
:102140000091CDE9026404903C48806C3B464246D5
:10215000D0F80CC028460C99E0476AE0FFE7C9F1C7
:10216000080005900C9C002006905EE01998204421
:10217000401E04903148B0F90610049881424DDCAD
:102180002E48B0F90A00A04248DB002003900196D7
:10219000079502903EE0039838B9019800780A90BC
:1021A0000198401C01900820039005990A9840FA74
:1021B00001FB0A9800FA09F0C0B20A900398A0EB5C
:1021C00009000390BBF1000F04D11C48007B00F014
:1021D0000200C8B91948408800901D9828B11D9880
:1021E00030F81B001549488002E01448A0F802B0FE
:1021F00007985044421E2146049B079800F080F83F
:102200000E490098488000BF0298401C0290079831
:102210005044079002984045BDDB00BF0698401C23
:102220000690199804441B9806440698B8429DDB12
:1022300000BF00BF07E70000080100208051002018
:1022400070B504460D4616461348B0F90600A8427C
:1022500000DD70BD1048B0F90A00A84200DAF8E7C6
:102260000D48B0F90400A04202DD0B48B0F904406B
:102270000948B0F90800B04202DA0748B0F908602E
:10228000A64200DAE5E70448806C32462946036935
:102290002046984700BFDCE78051002070B5044617
:1022A0000D461648B0F90600A84200DD70BD13487F
:1022B000B0F90A00A84200DAF8E71048B0F90400C3
:1022C000A04200DDF2E70D48B0F90800A04200DAB4
:1022D000ECE70A48007B00F0010030B10748806C51
:1022E0002946826A2046904706E004484288806C6E
:1022F0002946436A2046984700BFD7E7805100200F
:102300002DE9F04104460D4616461F461848B0F91F
:102310000400A04202DD1648B0F904401448B0F9A8
:102320000800B04202DA1248B0F90860A64201DAA9
:10233000BDE8F0810E48B0F90600A84202DD0C4865
:10234000B0F906500A48B0F90A00B84202DA084863
:10235000B0F90A70AF4200DAEAE70548806C3B4604
:1023600032462946D0F818C02046E04700BFDFE7D4
:10237000805100204FF6FF7070474FF48030704757
:10238000F02070474FF4A070704710B50446204607
:1023900000F002F810BD00002DE9F041044614B928
:1023A0000020BDE8F081A06808B90020F9E72068A6
:1023B000B0F5807F01DD0020F3E72668A7680025DF
:1023C00007E057F82500FFF705FE044921F815003E
:1023D0006D1CB542F5DB0148E3E7000070530020B7
:1023E00030B5014601F01F03C1F34512C1F3C42407
:1023F000C4EB04201F25B0FBF5F4C2EB02203F25FF
:10240000B0FBF5F2C3EB03201F25B0FBF5F304EBA3
:10241000022000EB034030BD10B5002400F042F96B
:1024200000F0DCF8044300F011F8042000F062F939
:1024300040F6FF731A4600210846FFF761FF0020AF
:1024400000F058F900F0CFF8204610BD704770B585
:1024500004462046FFF7C8FD0546284670BD2DE915
:10246000FC5F82460D4616469846DDF830B0DDF832
:102470003890109F002440E0BBF1040F20D006DC10
:10248000BBF1010F0AD0BBF1020F32D10FE0BBF15B
:10249000080F1ED0BBF1100F2BD122E06119CDE93E
:1024A00000674A4650460F9B02F09CF821E06119F4
:1024B000CDE900674A4650460F9B02F0A5F918E0A7
:1024C0006119CDE900674A4650460F9B02F0CEFAEB
:1024D0000FE0611933464A465046009702F03CFC33
:1024E00007E0611933464A4650460097FDF7E2FE81
:1024F00000BF00BF0D988144641C4445BCDBBDE8AF
:10250000FC9F000070B504460E4615460C48007B43
:1025100000F0010040B104E03146204600F071F8BF
:10252000641CAC42F8DD09E006E00548428831460B
:10253000204600F05CF8641CAC42F6DD70BD000083
:102540008051002070B506460C4615460C48007BAD
:1025500000F0010040B104E02146304600F051F89F
:10256000641CAC42F8DD09E006E0054842882146DB
:10257000304600F03CF8641CAC42F6DD70BD000053
:10258000805100202DE9F04106460C4617461D46B5
:1025900005E03A4621463046FFF7B4FF641CAC42E2
:1025A000F7DDBDE8F08110B5FFF7E4FE10BD70B5B2
:1025B00004460D46A9B2A0B2FFF7FEFA70BD002195
:1025C00001804180EF21818040F23F11C18070473E
:1025D00010B504462046FFF703FF10BD10B5FFF706
:1025E00053FB002010BD704700BF00BF704770B59F
:1025F00004460D461646A9B2A0B2324600F090F845
:1026000070BD70B504460D4629462046FFF7CFFF42
:1026100086B2C6F58030421E29462046FFF7E7FF06
:1026200070BD000010B506480068064988640020A7
:10263000A1F84C00081D086100F034F810BD00003E
:10264000180100208051002070B504460648406BF8
:10265000A04207D0044844632046FFF7BBFC054670
:1026600000F004F870BD00008051002010B5044651
:10267000002002F0FBFF024921F8104010BD0000CD
:10268000805100201CB504460548806C016A6846EC
:1026900088476A4621460248001DFFF7CEF81CBD58
:1026A0008051002010B50348806C016A0148001D6C
:1026B000884710BD8051002070B504460648006B65
:1026C000A04207D0044804632046FFF783FC054678
:1026D00000F004F870BD00008051002010B50446E1
:1026E000012002F0C3FF024921F8104010BD000094
:1026F0008051002010B50146084A107B127B4A40E9
:1027000002F004023AB1054B1A885B88034C23801F
:1027100023465A8000BF014B197310BD8051002021
:1027200070B504460D4616460848008884420BDA08
:1027300007480088854207DA29462046FFF736FC1D
:10274000B1B20120FFF75CF970BD00008C000020E1
:102750008E00002010B50749086BFFF73BFC0446CC
:10276000FFF7BCFF0349486BFFF734FC0446FFF753
:102770007DFF10BD8051002070B50024FFF700FEE2
:102780000546FFF7FFFD0646002211460748FEF703
:1027900075F94FF47A70FEF755F94FF47A70FEF739
:1027A00051F94FF47A70FEF74DF970BD08C5010874
:1027B00000BFFEE7704710B500F013F800F0CAFD47
:1027C00000F0F2FD00F012FE00F094FD00F054FD68
:1027D00000F0A6FE00F04AFE00F070FE00F002F8E5
:1027E00010BD70477047000010B500241A480078EB
:1027F000012830D1FDF7B8FC04461848007820B114
:1028000016480078401E1549087014480078F8B939
:1028100013480078E0B900F0E5FE12481249097843
:1028200050F82100114908600F48007810490978D4
:1028300088420DD00D480068806B401C0B49096828
:1028400088630C480068401C0A490860FDF7A8FC32
:102850002046FDF78DFC10BD5600002049000020E9
:102860004A0000209C0B00204C0000206400002047
:102870004B0000203000002070B5054600261048AF
:10288000007808B1002070BDFDF76EFC06460D48CB
:102890000468006820B10B48006840680949086076
:1028A0003046FDF765FC4CB10120207000202081EE
:1028B000656005A06061204600F0D0FC2046E2E79C
:1028C00049000020340000203F00000070B505469C
:1028D00000261048007808B1002070BDFDF744FCC8
:1028E00006460D480468006820B10B48006840683F
:1028F000094908603046FDF73BFC4CB103202070CD
:1029000025810020606005A06061204600F0A6FCE3
:102910002046E2E749000020340000203F0000008C
:102920002DE9F04105460E46144600272878032875
:1029300003D001202070BDE8F0813148007810B14B
:1029400002202070F7E72F48007810B10D2020708A
:10295000F1E7FDF709FC0746288940B12889401EA8
:1029600028813846FDF704FC00202070E3E7264864
:10297000006890F8300040F001002349096881F8B0
:10298000300000202049096881F831001E480068A5
:10299000C662284600F024FC3846FDF7E9FB00F04B
:1029A000E7FDFDF7E1FB07461748006890F83100A6
:1029B00020B1012809D0022806D102E000202070B1
:1029C0000BE00E20207008E000BF29460E4800688A
:1029D00000F0F0FB0A20207000BF00BF00200A4971
:1029E000096881F830000849096881F83100064912
:1029F0000968C8613846FDF7BBFB00BF9BE70000D4
:102A0000490000204A0000205C00002070B5044608
:102A100000252078032801D0012070BDFDF7A4FB1C
:102A20000546A07A60B1002301221946204600F035
:102A30007FFB2846FDF79CFB00F09AFD0020ECE7A9
:102A400020894FF6FF71884207D22089401C2081DF
:102A50002846FDF78DFB0020DFE72846FDF788FBC1
:102A60003320DAE710B50B48007890B900F0BAFDD2
:102A7000094800780949087009480749097850F859
:102A80002100084908600846006807490860FDF70A
:102A900072FB10BD560000204C0000204B000020AF
:102AA0009C0B0020640000205C00002070470000A8
:102AB0002DE9FE4F06460F4690461C464FF0000992
:102AC000FDF752FB81461F48007828B14846FDF7C4
:102AD0004FFB3C20BDE8FE8F1B4850F8240060BB34
:102AE0000120194941F824004846FDF741FB002325
:102AF00042463946304600F0B5F982460020009043
:102B000001900346024651460290204600F080FDA7
:102B1000054635B90D48007801280CD100F028FD94
:102B200009E0FDF721FB81460020074941F8240018
:102B30004846FDF71DFB2846CCE74846FDF718FB45
:102B40002820C7E7490000209C0B002056000020E9
:102B50002DE9F04F85B081468A4693461C46DDE953
:102B60000F78129D00200390FDF7FEFA0390234892
:102B7000007830B10398FDF7FBFA3C2005B0BDE8C2
:102B8000F08F1F4850F8240088BB01201C4941F8F1
:102B900024000398FDF7ECFA2A464146384600F037
:102BA00047FE2B465A465146484600F05BF90490D2
:102BB0001198CDE9008002953A4620460E9B049973
:102BC00000F026FD064636B90E48007801280CD1E3
:102BD00000F0CEFC09E0FDF7C7FA03900020084999
:102BE00041F824000398FDF7C3FA3046C6E7FFE733
:102BF0000398FDF7BDFA2820C0E700004900002037
:102C00009C0B002056000020704700002DE9F04189
:102C1000054600274748007810B14020BDE8F08104
:102C20003F2D01D13E20F9E7FDF79EFA0746FF2D23
:102C300003D14148006890F83250404850F8254090
:102C400024B93846FDF794FA4320E7E7012C04D174
:102C50003846FDF78DFA3D20E0E714F8340F384987
:102C6000085C617888432178354A505414F8340957
:102C70001146085C30B994F8361032480078884321
:102C800030490870E06918B12046E16900F092FA15
:102C9000666A16B1304600F01BFB0020E06284F843
:102CA000300084F8310028480078FF2804D22648F4
:102CB0000078401C244908703846FDF759FA00F0A6
:102CC00036FAFDF751FA07461F48007820B11E4832
:102CD0000078401E1C490870204600F041F81B484F
:102CE0000078401E194908700020144941F8250059
:102CF000A06930B900206169886115496069086080
:102D000005E0D4E905014861D4E90510886111485E
:102D1000006860610F4804600FA0E0643846FDF76A
:102D200027FA0E480078012801D100F021FC00208C
:102D300074E70000490000205C0000209C0B00208C
:102D40004E0000204D0000204A00002057000020C7
:102D500068000020600000203F00000056000020B6
:102D6000704770472DE9F04106460F4614464FF074
:102D700000081548007818B112202070BDE8F081D5
:102D8000FDF7F2F98046FF2E03D11048006890F855
:102D900032600F4850F826502DB94046FDF7E8F94B
:102DA00043202070EAE7012D05D14046FDF7E0F908
:102DB00043202070E2E7EF644046FDF7D9F9002098
:102DC000207000BFDAE70000490000205C0000200E
:102DD0009C0B0020704700002DE9F04707460D4688
:102DE0004FF0000A002028606860FDF7BDF98246B8
:102DF000FF2F03D11948006890F83270184850F836
:102E000027402CB95046FDF7B3F94320BDE8F087C1
:102E1000012C04D15046FDF7ABF94320F6E7207CA6
:102E200000F0010020B95046FDF7A2F94520EDE77A
:102E30000026D4F80C90D4F808805046FDF798F995
:102E400000E0761C58F8041B0029FAD0B000286076
:102E5000A9EB0600800068600020D7E75C00002036
:102E60009C0B002070B5044610464FF0807505603D
:102E7000051F28462C606FF00106051F28462E60AE
:102E80004FF01236051F28462E604FF00336051FFF
:102E900028462E604FF00236051F28462E60761019
:102EA000051F28462E60051F284629604FF0113661
:102EB000051F28462E604FF01036051F28462E604D
:102EC0004FF00936051F28462E604FF00836051FC3
:102ED00028462E604FF00736051F28462E604FF01B
:102EE0000636051F28462E604FF00536051F28467A
:102EF0002E604FF00436051F28462E6070BD00007E
:102F00002DE9F04105464FF00008FDF72DF9804608
:102F1000FF2D05D12048006890F83250012608E0C6
:102F20001D48006890F83200A84201D1012600E057
:102F300000261A4850F825402CB94046FDF718F9EC
:102F40004820BDE8F081012C04D14046FDF710F97E
:102F50004320F6E794F834701148C05D94F83510BA
:102F600088430F49C8550846C05D30B994F83610FB
:102F70000C48007888430B49087094F8300040F002
:102F8000080084F830004046FDF7F2F8012E01D128
:102F900000F0EEFA0020D4E75C0000209C0B00203B
:102FA0004E0000204D0000207047000070B505461F
:102FB00000261748007800B170BD1648007800B1AF
:102FC000FAE71DB3FDF7D0F806461348006890F8FD
:102FD00034401248005D1049096891F83510884363
:102FE0000E4908550846005D40B90B48006890F846
:102FF00036100B4800788843094908700648006875
:10300000C5623046FDF7B4F800F0B2FA00BFD3E76E
:10301000490000204A0000205C0000204E000020F3
:103020004D00002070B50025FDF79EF805460348C9
:1030300004682846FDF79CF8204670BD7400002007
:1030400070B5002600F072F8FDF78EF8064631489C
:103050000068401C2F4908603046FDF789F82E486B
:103060000078012853D12D48007820B1012804D0E0
:10307000022809D103E001250BE0002509E0012524
:1030800001202649087004E001250020234908702A
:1030900000BF00BF05B970BD2148046833E0FDF7EB
:1030A00063F80646E06A50B3E06A401EE062E06AF8
:1030B00028BB94F8300000F0370040B114F8300F0E
:1030C00000F0C800207001206070303C02E0002059
:1030D00084F8310094F8300000F0080078B93434F6
:1030E000A0781049097808430E49087020780E49E5
:1030F000085C6178084314F834190B4A5054646929
:103100003046FDF735F894F832003F28C7D100BFAC
:10311000C1E7000074000020560000206C00002071
:10312000680000204D0000204E00002070477047CE
:103130002DE9F04F05460F4690469946A87A194961
:103140000E5C05F10B00805D11F800B00BEBC600C2
:1031500000F0FF0A144850F82A4000202034E060B4
:103160002760207C20EA0800207484F81190207CDD
:10317000203C00F0080068B994F836000B49097843
:1031800008430A4908700A48805D94F835100843DE
:10319000074988552946204600F00CF85046BDE8FE
:1031A000F08F0000B89700089C0B00204D00002015
:1031B0004E00002010B590F8342001F10B039B5C09
:1031C00090F83540A34301F10B04A35423469B5CC4
:1031D00023B98B7A90F83640A3438B7210BD000060
:1031E00010B51B4A1268D061194A126892F834303F
:1031F00000F10B02D25C164B1B6893F835301A4372
:10320000134B1B6893F8344000F10B031A55827A74
:103210000F4B1B6893F836301A4382720C4A1268BF
:1032200092F834100B4A525C094B1B6893F8353006
:103230009A43084B5A541A46525C42B9044A1268DF
:1032400092F83630044A12789A43034B1A7010BD34
:103250005C0000204E0000204D00002001460022AE
:103260008A72002005E0002301F10B021354421C76
:10327000D0B20828F7D370472DE9F041502111480A
:1032800000F044F900250DE0681C86B20D4800EB03
:10329000051400EB06170020207067600AA0E060AC
:1032A000681C85B2042DEFD3064800EB05140020FE
:1032B0002070606004A0E060024804490860BDE836
:1032C000F08100004C0700203F0000003800002083
:1032D00030B501464A6808682AB9CC68606028B1F0
:1032E0000025456002E0106000B142608B68002557
:1032F0005D6230BD70B5F021134800F007F900247D
:1033000011E0601C85B204EB44000F4901EBC003DF
:1033100005EB450001EBC006002018705E600BA0B5
:103320005861601C84B2092CEBD304EB44000649BD
:1033300001EBC00300201870586004A058610846D3
:103340000349086070BD00005C0600203F000000DB
:103350003400002000200A4908600A4908700A4920
:1033600008700A4908700A4908700A4908600A4941
:1033700008600A4908600A4908600A4908707047ED
:1033800074000020490000204A000020570000205F
:10339000560000203000002058000020440000208B
:1033A000400000204800002000210A4A117000203F
:1033B00004E00021084A1154411CC8B20828F8D37F
:1033C0000021064A1170064A1170064A1160064A29
:1033D000116070474D0000204E0000204B0000207F
:1033E0004C000020640000205C00002070B54FF409
:1033F000E761194800F08AF84FF48071174800F02F
:1034000085F8002413E0601CC5B2C4EBC40000EBD7
:103410004000114901EB8003C5EBC50000EB400003
:1034200001EB80065E610EA0D864601CC4B2152C4E
:10343000E9D3C4EBC40000EB4000074901EB800373
:103440000020586106A0D8640020064908600248A0
:103450000549086070BD00009C0C00209C0B0020FA
:103460003F000000680000206000002000B587B029
:103470000320002180220A4BCDE90132CDE903105F
:103480004FF6FF703F23074A00900748FFF760FBA5
:1034900006AA06A13F20FFF765FC07B000BD0000AB
:1034A0009C090020980B00204537000875432F4FDA
:1034B000532D49492049646C6500000000B587B070
:1034C0000320002180220A4BCDE90132CDE903100F
:1034D0004FF6FE703E23074A00900748FFF738FB7F
:1034E00006AA06A13E20FFF73DFC07B000BD000084
:1034F0009C070020980900206D37000875432F4F66
:10350000532D4949205374617400000004E00022E7
:1035100000F8012B4A1E91B20029F8D17047000033
:103520002DE9F04160211048FFF7F0FF00240DE085
:10353000601C86B204EB44000B4901EBC00506EBAE
:10354000460001EBC0072F60601C84B2032CEFD350
:1035500004EB4400044901EBC00500202860084644
:1035600002490860BDE8F081D413002070000020FB
:1035700010B50024FCF7F8FD044613480078F8B9AC
:1035800012480078E0B900F02DF811481149097887
:1035900050F82100104908600E4800780F4909785A
:1035A00088420DD00C480068806B401C0A490968AD
:1035B00088630B480068401C09490860FCF7EBFD74
:1035C0002046FCF7D5FD10BD490000204A00002030
:1035D0009C0B00204C000020640000204B000020C9
:1035E000300000200649074A1278885C0649095CC9
:1035F000034A515C01EBC001044A1170704700009E
:10360000B89700084D0000204E0000204C0000201C
:103610002DE9F84F05460F4690469946DDE90AAB7D
:1036200000200090FCF7A0FD00903F480468002CAB
:1036300074D0183454F8040C3B4908600098FCF727
:1036400097FD44F8187CA5760020207660766061AE
:1036500044F814BC44F80CAC44F8108C0C9824F8D2
:10366000080C24F8069C0020E077E810207705F08D
:103670000700E076217F01208840A077E17E0120CD
:103680008840607700206060E060A0602062A062F7
:103690006062E062206325A06063183C002606E0BB
:1036A000002104F1500040F82610701CC6B2002E14
:1036B000F6D02046FFF7FAF92046FFF7A5FAFCF707
:1036C00053FD00901A4840F825401A480068606190
:1036D0000020A0611748006810B116480068846196
:1036E000144804603434A078134909780843124917
:1036F000087020781149085C6178084314F834197F
:103700000E4A50540E480078401C0D49087000982D
:10371000FCF72EFD0020BDE8F88FFFE70098FCF7CE
:1037200027FD4220F7E70000600000203F00000076
:103730009C0B0020680000204D0000204E0000205F
:1037400057000020002400BF00BFFCF70DFD044619
:1037500005480068401C044908602046FCF708FD45
:10376000FFF7FFFAF1E7000058000020002400BF37
:1037700002E01420FFF71AFC194800780028F8D05E
:10378000184800686421B0FBF1F01649086008464B
:10379000006828B9002014490870FF20FFF7B0FB2B
:1037A00000BFFCF7E1FC04461048006810490860BF
:1037B00000200E4908602046FCF7DAFC0C4800683F
:1037C00008490968B0FBF1F0C0F1640006490870CF
:1037D000FFF700FB00F00EF80A20FFF7E7FBE0E739
:1037E00048000020400000203C000020580000203D
:1037F000440000207CB5002514E069462846FFF708
:10380000EBFA064666B9094850F8254044B1012C48
:1038100006D0D4E9020100EB810060640198A06445
:10382000681CC5B23F2DE8D97CBD00009C0B002070
:1038300002F0010343B102F002032BB102E0491E82
:10384000002308C00029FAD17047000029B1064AB8
:1038500052690243044B5A6104E0034A52698243AD
:10386000014B5A61704700000010024029B1064A1E
:1038700092690243044B9A6104E0034A92698243CD
:10388000014B9A617047000000100240704710B56C
:1038900000F002F810BD00000CB50020019000906F
:1038A0003348006840F480303149086000BF304838
:1038B000006800F4003000900198401C01900098CE
:1038C00018B90198B0F5A06FF1D12948006800F44B
:1038D000003010B10120009001E00020009000981D
:1038E000012843D12348006840F0100021490860B6
:1038F0000846006820F0030008600846006840F0B1
:10390000020008601A484068194948600846406843
:1039100048600846406840F4806048600846406857
:1039200020F47C1048600846406840F4E810486085
:103930000846006840F08070086000BF0C480068CE
:1039400000F000700028F9D00948406820F003001A
:10395000074948600846406840F00200486000BFE0
:103960000348406800F00C000828F9D10CBD0000A5
:10397000001002400020024010B5FCF7F5FB0446A1
:1039800006480078401C054908702046FCF7F0FB0B
:10399000FFF756FBFEF728FF10BD0000490000208E
:1039A00030B5144800686422B0FBF2F1B1F1807FB9
:1039B00000D31DE021F07F40401E4FF0E022506117
:1039C00050170F22002807DA13071D0E0A4B00F0CC
:1039D0000F04241F1D5503E013071C0E074B1C5436
:1039E00000BF00204FF0E02290610720106100BF6F
:1039F00030BD00001C00002018ED00E000E400E0F5
:103A000010B51348006840F00100114908600846ED
:103A10004068104908400E494860084600680E4951
:103A200008400B4908600846006820F480200860C0
:103A30000846406820F4FE0048604FF41F0088608C
:103A4000FFF725FF4FF000600449086010BD00003B
:103A5000001002400000FFF8FFFFF6FE08ED00E056
:103A600010B586B00446032000214FF48072084B45
:103A7000CDE90132CDE9031005200346054A009047
:103A80000548FFF765F8FF20FFF7C0F806B010BD46
:103A90001C010020180500209502000800BFFEE769
:103AA0000120014908707047B00000202DE9F0475F
:103AB0000546FDF75FF8EDB12846FCF76BFF0446BD
:103AC000284600F015FB0646A6B1284600F042F94C
:103AD00081464846FCF75EFF07463046FCF75AFF32
:103AE0008046608BA8F81A00388B60833D8320469F
:103AF00000F08AF9FDF730FEBDE8F0872DE9FF47B9
:103B000004460D4616461F46DDE90D9ADDF8308065
:103B100000203B46324629468DE80107204600F04A
:103B200003F804B0BDE8F0872DE9F84F80468946D8
:103B300092469B46DDE90A75FDF71CF8414800886E
:103B400005432FB94048008810B14048B0F90070D3
:103B5000781C00B90027F7B13846FCF71BFF064672
:103B6000B6F900008044B6F902008144BAF1000FB2
:103B700006D1B6F90400B6F90010401A00F1010AA6
:103B8000BBF1000F06D1B6F90600B6F90210401AD3
:103B900000F1010B00BF0D98203000B2FCF785FE4C
:103BA0000090002849D028480088401C26490880F9
:103BB0000098FCF7EFFE04460FFA88F020800FFA19
:103BC00089F0608008EB0A00401E00B2A08009EB7B
:103BD0000B00401E00B2E0800C982061A08B43F6E1
:103BE0008F7129400843A083009800F0C1FB39463B
:103BF000009800F01FFB05F0200010B1009800F0C5
:103C00007BF905F0010020B111480068401C104903
:103C1000086005F0400010B10098FFF747FF05F07D
:103C2000020030B1A08B40F00200A083009800F0A9
:103C30003BF90121009800F090FBFDF78DFD009805
:103C4000BDE8F88FB20000209C000020A8000020F2
:103C5000C400002010B5002004490870FCF78AFF5A
:103C6000FEF720FDFDF778FD10BD0000B00000203C
:103C70002DE9F0410446B4F90450A6682846FCF743
:103C800089FE0746206817280FD004DC0E280FD0C5
:103C900014281AD104E022280FD0282815D110E0CA
:103CA0003146384600F0D9F90FE0A560BDE8F08153
:103CB0002146284600F056F9F8E76FF07040A06002
:103CC000F4E7284600F0F0F8F0E700BF0020A0601D
:103CD000A06000BFEAE710B5002400E0012400F076
:103CE00005F80028FAD1204610BD000010B5124892
:103CF000006810B11048006880471048006828B17B
:103D00000E480068804708B1012010BDFDF70CFB8C
:103D100008B10120F9E70A48007850B10948008845
:103D200038B1FCF727FF01F08DF9FDF715FD0120F3
:103D3000EBE70020E9E70000BC00002000010020C4
:103D4000B00000209E0000200148B0F9000070473C
:103D5000A800002010B5044644B1FCF70BFF204634
:103D6000FCF718FEB0F91640FDF7F6FC204610BD32
:103D70000EB51A48007880BB0020194908801949FF
:103D80000880194988631949088019490880194928
:103D9000022240F6FF73CDE9002102901A46014647
:103DA000FFF7ACFE144908806FF0704013490860BB
:103DB0001149B1F9000000F077F8114800F018F946
:103DC000104800F015F90C49B1F9000000F094F822
:103DD000FFF766FE0120014908700EBDCC000020EF
:103DE000A0000020CA000020805100209E0000207A
:103DF0009C000020E15B0008A8000020AC0000202F
:103E0000D0000020D800002070B50446FCF7B2FEB8
:103E10000848B0F9005008E02146284601F0B4FCFB
:103E20002846FCF7B7FDB0F91450002DF4D1FDF78A
:103E300093FC70BDA00000202DE9FF4105460E4611
:103E400085B3FCF797FE2846FCF7A4FD0446A78B34
:103E500007F00200F8B1D4E90001CDE9020166B132
:103E600030680090706801906946204600F0C8F8FC
:103E7000694602A8FDF7C0FC00BF294602A800F071
:103E8000CAF840B140F601003840012804D1294663
:103E900002A800F018FA03E002A9284601F074FC19
:103EA000FDF75AFCBDE8FF8110B50446002120460D
:103EB000FFF7C2FF10BD000070B586B004460D4686
:103EC0000026FCF757FE0B48008868B10194029564
:103ED0000E20039001A8059003A90648B0F9000040
:103EE00000F029FA012600BFFDF736FC304606B087
:103EF00070BD0000B600002070B50446FCF73AFE25
:103F00000C48B0F93C6014B90B48B0F900400948BE
:103F100084872046FCF73EFD0546FEF7C3FBB5F956
:103F2000000004490864B5F902004864FDF714FC78
:103F3000304670BD80510020A000002070B50446BE
:103F40000D4674B1FCF716FE2046FCF723FD06462D
:103F5000306918B1AC80284631698847FDF7FCFB11
:103F600000BF70BD70B505460C4674B1FCF702FE8B
:103F70002846FFF7EFFE064626B1E580214630468B
:103F8000FFF7DCFFFDF7E8FB00BF70BD10B5FCF7E5
:103F9000BFFA00200149886310BD00008051002055
:103FA0001CB50F48007818B10E4801F04FFD16E01F
:103FB0000D49B1F93C00FCF7EDFC0446D4E90001E1
:103FC000CDE900010948008828B10848B0F900107F
:103FD000684600F020F8684601F038FD00BF1CBDBF
:103FE000B00000204814002080510020C8000020AC
:103FF000024909680160014908607047A400002077
:1040000070B504460D46B4F90220B4F900102846F4
:10401000FDF778F970BD70B506460D4600BF28461D
:10402000FCF7B8FC0446207F00F0020008B900202D
:1040300070BD21463046FDF7DFFBE08A00B902E0A3
:10404000B4F91650EBE700BF284600F08BFA0028C1
:1040500001DA0020ECE70120EAE700224A800A802A
:1040600082880388D21A12B28A80C2884388D21A00
:1040700012B2CA80704710B504462046FFF76AFEA8
:1040800004462CB12046FCF785FCB0F9180010BDA1
:104090000020FCE782680A60C2684A60704700003E
:1040A00010B51148007808B9002010BD0F484069CC
:1040B000012806DD0D484069401E0C49486100207A
:1040C000F3E70A480069401C0849086101F0E2F87A
:1040D00030B906484069401E044948610020E4E7C1
:1040E000FFF75EFF0120E0E7B00000204014002051
:1040F00070B505462846FFF7BEFF06460EE0AE4205
:1041000001D100260CE03046FCF744FC0446B4F92B
:104110001A00A84200D103E0B4F91A60002EEED1D3
:1041200000BF304670BD00007FB505463C480078B2
:1041300020B9FFF735FF012004B070BD3948406950
:10414000401C38494861012801DD0120F4E7364967
:10415000B1F93C00FCF71EFC04464FF0FF3031493A
:1041600008613248007820B102A92046FFF792FF8B
:104170000FE0207F00F0020020B1D4E90001CDE97A
:10418000020106E027484069401E26494861002098
:10419000D2E71DB1294602A8FDF72EFB2248806B0D
:1041A000C0B126462048806B0168009140680190AC
:1041B0001F48008828B11E48B0F90000FCF7EAFB50
:1041C000064669463046FFF71BFF694602A8FDF721
:1041D00013FB00BF1648008868B11548B0F90010FD
:1041E00002A8FFF718FF30B90E484069401E0D497C
:1041F00048610020A0E70C48B0F93C1002A8FFF786
:104200000AFF30B907484069401E0649486100204E
:1042100092E70448DDE9021206C0FFF741FF8BE791
:10422000B00000204014002080510020C000002079
:10423000C80000202DE9F84F06468846B8F1000F67
:104240003FD03046FCF7A6FB044600206083A4F86C
:1042500016804046FCF79EFB0746207F00F0080BC7
:10426000B7F91890B9F1000F02D13E83BDE8F88F7D
:104270004846FCF78FFB0546BBF1000F07D1287FAE
:1042800000F0080018B1A4F81A903E83EEE700BFD2
:10429000B5F91A00009008B96E8311E00098FCF798
:1042A00079FB8246BBF1000F08D19AF81C0000F0A0
:1042B000080018B16E830098608301E05546E7E777
:1042C00000BF00BFD2E770B505460C4600BF2846C8
:1042D000FFF79AFD70BD000070B50446B4F90060A8
:1042E0006568A88B40F601010840012803D02946E3
:1042F000304601F0DDFA0548006830B1284601F08B
:104300004DFB2946304601F077FB70BDC40000200C
:104310000146B1F90000B1F90420904201DD00200E
:104320007047B1F90200B1F90620904201DD00208A
:10433000F6E70120F4E770B505460C462846FCF781
:1043400029FB0646A580306918B1204631698847A7
:1043500002E02046FFF78CFC70BD3EB505460C46DA
:10436000ADF80450009469462846FFF7E7FD3EBDCE
:1043700070B504460948008868B10848B0F90000E3
:10438000FCF708FB06462046FCF704FB0546B08A0E
:10439000A882B48201E00148048070BDA000002022
:1043A00070B5064600F076F8304601F09BFB0646F5
:1043B0003448B0F90E00B04201DA002070BD00F0C0
:1043C00025FF051E00D1F9E7304600F031FF044615
:1043D000601C18B9304600F067F80446601C08B944
:1043E0000020EBE7284A32F83420274B03EBC403C4
:1043F0005B881A4411B2244A02EBC4029088224A14
:1044000002EBC5025680204A22F8351002EBC502A5
:104410009080002803DD1C4B03EBC003DD801A4BAA
:1044200003EBC503DC80184B03EBC4039D801548E8
:104430000068401C1349086008464068401E4860F8
:10444000084680684968884203DD0E4840680D4987
:1044500088600C488089304400B20A498881084647
:10446000C089801B00B2C8810846B0F91000B1F9BC
:104470000E10884203DD0348C0890249088228469D
:104480009CE700006C5100202C450020014600BF35
:104490000120704700B50348007808B9FCF75EFAC0
:1044A00000BD0000F40000202DE9F04706464FF063
:1044B000FF39002438E0294830F83400274901EB5F
:1044C000C40149880844254931F83510081A0FFA03
:1044D00080FAB24527DA214830F834001F4901EB51
:1044E000C401498808441D4931F83510081A07B23B
:1044F000C7B11A4830F93500194900EB01081749CE
:1045000001EBC501B1F90220A8EB07004146FBF71A
:104510007DFE124830F83500C01B00B20F4921F86B
:10452000350000BF00BF2C460C4800EBC400858856
:10453000002DC0D1094830F93400084901EBC4010D
:10454000B1F90210084443F2D401081AB04200DB6A
:10455000A1460FFA89F0BDE8F08700002C45002045
:104560005814002001460548B0F90000884201D1E6
:10457000002070474FF0FF30FBE70000A80000204C
:104580002DE9F04705460F4691461C46DDE90886B1
:104590001348007B00F0030010B102281CD106E094
:1045A0004FEA480221463046FBF730FE14E000BFD8
:1045B000208840B1208830802DB1A8684A4639460D
:1045C0000368284698477F1CB61CA41CA8F101006C
:1045D000B0F10008ECD100BF00BFBDE8F0870000DB
:1045E000805100202DE9F84F0646894615461C46A5
:1045F000DDE90A78B8F800000090B8F802A0264477
:104600002D48007B00F0030020B1012831D00228A2
:104610004ED118E000BF297880232341194009B109
:10462000514600E000990A463046761C4946FDF79F
:10463000DEFF601C0446082801D100246D1C781E92
:10464000071EE8D134E000BF2878802121410840CE
:1046500020B1524649463046FDF7C9FF761C601C22
:104660000446082801D100246D1C781E071EEBD1DA
:104670001EE000BF287880212141084068B14946EA
:104680003046FDF794FF83464FF6FF70A0EB0B0218
:1046900049463046FDF7ABFF00BF761C601C044660
:1046A000082801D100246D1C781E071EE2D100BF2E
:1046B00000BFBDE8F88F0000805100202DE9FF4FBA
:1046C00081B081468A469846129E0F9D0E98C0F191
:1046D000080498F800004A49085C0E9940FA01F76E
:1046E0004848007B00F0030020B1012862D0022876
:1046F00079D11CE000BFAC4200D92C462D1B00BF75
:1047000007F00101109830F8110026F8020B7F081D
:10471000601E041EF4D115B905B0BDE8F08F082461
:1047200008F101008046007835490F5CE3E71098F6
:10473000B0F802B000BFAC4200D92C462D1BB9F135
:10474000000F1BD000BF1FB906EB4406A24414E0C3
:1047500007F0010040B1D9F8080003685146484607
:10476000039A9847A6F800B00AF1010AB61C601E29
:10477000041E00D101E07F08E5E711E000BF17B992
:1047800006EB44060BE007F0010008B1A6F800B004
:10479000B61C601E041E00D101E07F08EFE700BFD9
:1047A00005B9B9E7082408F10100804600781449EA
:1047B0000F5CC0E71199486A804780B2009000BF43
:1047C000AC4200D92C462D1B00BF07F0010018B1E8
:1047D0003088009948403080B61C7F08601E041E57
:1047E000F3D10DB998E707E0082408F101008046ED
:1047F000007803490F5CE3E700BF00BF8CE70000CF
:10480000A8CC0108805100202DE9FF4F83B0054658
:1048100016469A46DDE9107896F8009054465544BD
:104820005248007B00F0030010B1022848D148E054
:10483000B8F1000F24D000BFC4F103004FEA400BD1
:10484000CBF10601C020084100EA090040FA0BF054
:104850000290029838F81000019028466D1C019AC9
:104860000499FDF7C4FE601C0446042804D100240A
:10487000701C064690F80090781E071EDCD11FE0E1
:1048800000BFC4F103004FEA400BCBF10601C0208A
:10489000084100EA090040FA0BF0029028466D1C1E
:1048A000029A0499FDF7A3FE601C0446042804D173
:1048B0000024701C064690F80090781E071EE0D178
:1048C0004FE0B8F1000F27D000BFC4F103004FEA5A
:1048D000400BCBF10601C020084100EA090040FA74
:1048E0000BF00290029848B1029838F8100001903D
:1048F0002846019A0499FDF77AFE00BF6D1C601CE2
:104900000446042804D10024701C064690F8009048
:10491000781E071ED9D123E000BFC4F10300400078
:1049200002900298C0F10601C020084100EA090087
:10493000029940FA01FBBBF1000F04D05A46284609
:104940000499FDF754FE6D1C601C0446042804D134
:104950000024701C064690F80090781E071EDCD1DB
:1049600000BF00BF07B0BDE8F08F000080510020FD
:104970002DE9FF5F81468A469846DDE910B60F9C17
:104980000E98C0F10400C5B298F800000E994900D5
:104990008840C7B23448007B00F0030020B10128F2
:1049A00043D002285DD118E000BFA54200DDE5B28A
:1049B000641B00BFB8113BF8100026F8020BB806C4
:1049C000070E681EC0B2051EF4D12CB1042508F1F3
:1049D000010080460778E8E743E000BFA54200DD1C
:1049E000E5B2641B00BF07F0C00068B1B8113BF826
:1049F00010003080B9F1000F06D0D9F80800036824
:104A000051464846029A9847B61C0AF1010AB80670
:104A1000070E681EC0B2051EE5D12CB1042508F1B1
:104A2000010080460778D9E71BE000BFA54200DD02
:104A3000E5B2641B00BF07F0C00018B1308880F0F9
:104A4000FF003080B61CB806070E681EC0B2051EF7
:104A5000F1D12CB1042508F1010080460778E5E783
:104A600000BF00BFBDE8FF9F805100202DE9FF4F30
:104A700083B0054616469A46DDE9107896F8009010
:104A8000544655445248007B00F0030010B1022800
:104A900048D148E0B8F1000F24D000BFC4F10100B4
:104AA0004FEA800BCBF10401F020084100EA090035
:104AB00040FA0BF00290029838F810000190284656
:104AC0006D1C019A0499FDF792FD601C04460228B2
:104AD00004D10024701C064690F80090781E071E32
:104AE000DCD11FE000BFC4F101004FEA800BCBF125
:104AF0000401F020084100EA090040FA0BF002909E
:104B000028466D1C029A0499FDF771FD601C04464D
:104B1000022804D10024701C064690F80090781EEC
:104B2000071EE0D14FE0B8F1000F27D000BFC4F15D
:104B300001004FEA800BCBF10401F020084100EAAC
:104B4000090040FA0BF00290029848B1029838F838
:104B5000100001902846019A0499FDF748FD00BF16
:104B60006D1C601C0446022804D10024701C0646FB
:104B700090F80090781E071ED9D123E000BFC4F141
:104B80000100800002900298C0F10401F020084169
:104B900000EA0900029940FA01FBBBF1000F04D0C2
:104BA0005A4628460499FDF722FD6D1C601C0446F8
:104BB000022804D10024701C064690F80090781E4C
:104BC000071EDCD100BF00BF07B0BDE8F08F0000BA
:104BD000805100202DE9FF4F81B007468A46994653
:104BE000DDE90EB6DDE91084CBF10200C0B2009021
:104BF00099F800004FEA8B018840C5B25548007B08
:104C000000F0030020B101287ED002282AD12AE03A
:104C1000BBF1000F09D0281138F810002080A41C27
:104C2000761E09F1010081460578022E15DB701011
:104C300006F0010600BF291138F81110218005F097
:104C40000F0138F811106180241D09F10101894616
:104C50000D78411E081EEED100BF1EB1281138F894
:104C60001000208072E0BBF1000F15D005F0F000BD
:104C700050B1281138F8100020802FB1B8680368AF
:104C800051463846039A9847A41C0AF1010A761E39
:104C900009F101008146057824E005F0F00050B1EB
:104CA000281138F8100020802FB1B86803685146E9
:104CB0003846039A984705F00F00051E0AD038F8C9
:104CC0001500608037B1B86803680AF10101384601
:104CD000039A9847241D0AF1020AB61E09F1010041
:104CE00081460578022ED8DA66B12811051E09D052
:104CF00038F8150020802FB1B8680368514638464F
:104D0000039A984722E0FFE700BF0098B04201DD18
:104D1000F0B200900098361A00BF05F0C00018B13C
:104D2000208880F0FF002080A41C2807050E009832
:104D3000401EC0B200900028EFD136B10220009092
:104D400009F1010081460578DFE700BF00BF05B02B
:104D5000BDE8F08F805100202DE9F04707468946D5
:104D600014461D46DDF820802348007B00F0030038
:104D700010B102283DD11CE0B8F1000F0DD009E0C0
:104D8000267838F8162049463846FDF730FC6D1E67
:104D90007F1C641C002DF3DC0AE007E02278494602
:104DA0003846FDF724FC6D1E7F1C641C002DF5DCCD
:104DB0001FE0B8F1000F0ED00AE026782EB138F8C7
:104DC000162049463846FDF712FC6D1E7F1C641CF8
:104DD000002DF2DC0CE009E0267826B13246494687
:104DE0003846FDF704FC6D1E7F1C641C002DF3DCAF
:104DF00000BF00BFBDE8F087805100202DE9F047DB
:104E000006460F4692461C46DDE908890A9D17486A
:104E1000007B00F0030010B1022824D10CE000BF99
:104E2000207839F810002880AD1C641CA8F101001E
:104E3000B0F10008F4D116E000BF207850B120781E
:104E400039F8100028802EB1B06852463946036800
:104E5000304698477F1CAD1C641CA8F10100B0F1DE
:104E60000008EAD100BF00BFBDE8F08780510020F4
:104E70002DE9F04705460F4691461C46DDE90886B8
:104E80001248007B00F0030010B102281BD105E09E
:104E9000424621463046FBF7B9F914E000BF2078BE
:104EA00040B1207830802DB1A8684A463946036861
:104EB000284698477F1CB61C641CA8F10100B0F17D
:104EC0000008ECD100BF00BFBDE8F0878051002092
:104ED0002DE9FF4F89B00E4617469946DDE918AB1C
:104EE000DDF868804F49B1F94C00FBF753FD08909D
:104EF0000898008B28B10899B1F91800FBF74AFD12
:104F000000E0002007900898C0680690099858446F
:104F10000990079860B14348007B00F0020038B95F
:104F20003B463246CDF8009009990798FCF7D2FA33
:104F30003146099800F0DCFD05461698102813D17B
:104F400000240CE0A2195346CDE900750999079891
:104F5000FFF716FB1798824406980544641C4C45DD
:104F6000F0DB0DB0BDE8F08F169808281ED10024A4
:104F700019E0B8F1000F09D0A2195346CDE9007825
:104F8000029509990798FFF739FF07E0A2195346E0
:104F9000CDE9007509990798FFF76AFF17988244D1
:104FA00006980544641C4C45E3DBDAE7B8F1000FD2
:104FB00001D1DFF87480002430E01698012804D075
:104FC00002280FD0042823D117E00898A2195346CD
:104FD000CDE900B7CDE90280049509990798FFF75C
:104FE0006DFB15E0A2195346CDE900B7CDE9028566
:104FF00009990798FFF7BCFC0AE0A2195346CDE9CE
:1050000000B7CDE9028509990798FFF7E3FD00BFD6
:1050100000BF1798824406980544641C4C45CCDBBD
:1050200000BF9EE780510020A8CD010870B505465D
:105030000C461646234632462146284600F094F890
:1050400070BD000070B598B001261348008818B9EB
:105050001248B0F9000002E00F48B0F90000044621
:105060006846FCF7ADF90CE02046FBF793FC0546DB
:105070002946204600F0CEFB00B1761EB5F914405B
:1050800000BF0CB1002EEFD1034804806846FCF746
:105090008DF918B070BD0000CA000020A0000020EB
:1050A0002DE9F84F83460D4616462C49B1F94C00C0
:1050B000FBF770FC0746B7F91880B8F1000F03D072
:1050C0004046FBF767FC00E0002081462946584631
:1050D00000F00EFD0446D7F80CA02048007B00F03D
:1050E0000100C8B1786A804780B2009000BFB8F173
:1050F000000F06D0D9F808002A46594603684846EA
:1051000098472088009948402080F8680444681C2B
:105110000546B042EBDD1EE0B8F1000F10D000BF35
:10512000D9F808002A4659460368484698470B486C
:10513000408820805444681C0546B042F0DD0AE0F7
:10514000711B481C00BF0549498821805444411EF9
:10515000081EF8D100BFBDE8F88F00008051002084
:1051600002461170012070472DE9FE4F06460C469D
:1051700093461F462449B1F94C00FBF70BFC05464A
:105180002146304600F0B4FC8146E8680290ABEB63
:10519000060000F10108288B68B1B5F91800FBF78B
:1051A000F9FB8246381B401C43462246314600909C
:1051B0005046FCF78FF923E01348007B00F0010014
:1051C000A8B1CDF80480CA46686A804780B20090D2
:1051D00000BFBAF8000000994840AAF800000AF1A0
:1051E000020A0198401E01900028F2D105E006480D
:1051F000418842464846FCF78FFB02988144641C74
:10520000BC42D9DDBDE8FE8F80510020012107E0BE
:10521000064800EBC100408808B908B27047491C35
:10522000B1F5C47FF4DB0020F8E700002C45002036
:1052300030B50246002111E0154830F93100144D17
:1052400005EBC105B5F902502844114D35F933502D
:105250002C1A944201DB08B230BD19460C4800EB11
:10526000C1008388002BE7D1094830F93100084C90
:1052700004EBC104B4F90240204443F2D404201AE0
:10528000904201DB08B2E7E74FF0FF30E4E70000AF
:105290002C4500207CB55C49D1E90201CDE9000133
:1052A0005948006940B958480088ADF80000564890
:1052B0004088ADF802001BE053488089401C00B2D2
:1052C000ADF8000050484089ADF80200BDF900007B
:1052D0004D49B1F9041088420ADD00BF4A480088F0
:1052E000ADF800004848C089401C00B2ADF802008B
:1052F000BDF902004449B1F90610884201DD0020E1
:105300007CBD4249B1F93C00FBF744FB0546BDF9C1
:1053100000003D49B1F9001088421FD13A48C088C9
:10532000ADF8060038488088ADF804003748B0F979
:105330003C600BE03046FBF72DFB0446B4F91A0045
:105340000022694600F0EEF8B4F91660002EF1D1A3
:10535000B5F918000022694600F0E4F800BFBDF876
:105360000000ADF804002948B0F93C600DE030467B
:10537000FBF710FB0446B4F91A000022694600F05E
:1053800047F800B1EBE7B4F91660002EEFD1B5F99C
:1053900018000022694600F03BF800B1DFE71A4828
:1053A0008088ADF80400BDF90400BDF90010884202
:1053B00005DA1548DDE90012C0E902128EE713484C
:1053C000B0F93C600BE03046FBF7E4FA0446B4F970
:1053D0001A000022694600F064F8B4F91660002E45
:1053E000F1D1B5F918000022694600F05AF80648D4
:1053F0000069C82801DD002082E70348DDE90012CA
:10540000C0E9021201207BE74014002080510020F7
:105410002DE9FC5F06460D4617464FF0000B3BE0BA
:105420003046FBF7B7FA0446B0F81C8008F00200DB
:1054300080B32FB13A4621466846FCF7FEF903E0F7
:10544000D4E90001CDE9000169462846FBF790FF49
:10545000F8B108F0010038B9BDF80400401C00B2F2
:1054600028804FF0010B14E0B4F918900DE0484685
:10547000FBF790FA82466A4629464846FFF7C8FF7E
:1054800008B14FF0010BBAF91A90B9F1000FEED143
:1054900000BF00BFB4F91A60002EC1D15846BDE864
:1054A000FC9F2DE9FC4706460D46174636E0304680
:1054B000FBF770FA0446B0F81C8008F0020058B3FD
:1054C0002FB13A4621466846FCF7B7F903E0D4E924
:1054D0000001CDE9000169462846FBF749FFD0B13C
:1054E00008F0010028B9BDF80000401E00B2A880F5
:1054F00011E0B4F918900AE04846FBF74BFA8246EF
:105500006A4629464846FFF7CCFFBAF91A90B9F126
:10551000000FF1D100BF00BFB4F91A60002EC6D150
:10552000BDE8FC872DE9FC4706460C4617464EE0D1
:105530003046FBF72FFA0546B0F81C8008F0020051
:10554000002842D02FB13A4629466846FCF775F943
:1055500003E0D5E90001CDE9000169462046FBF7EB
:1055600007FF88B308F00100E0B9B5F90200B4F90B
:10557000021088420CDDBDF90200401EB4F906108D
:10558000884221DABDF80200401E00B2E0801BE034
:10559000BDF90600B4F90610884215DABDF8060018
:1055A000E08011E0B5F918900AE04846FBF7F2F9FF
:1055B00082466A4621464846FFF7B4FFBAF91A9078
:1055C000B9F1000FF1D100BF00BFB5F91A60002E8C
:1055D000AED1BDE8FC87000030B51B4901EBC0012E
:1055E000498801B930BD184901EBC001B1F9022069
:1055F0001649C989114409B2144BD98119468989C0
:10560000891A09B2998100210F4B03EBC00359801D
:105610000D4C04EBC004A1880B4C04EBC004E388E0
:10562000094C04EBC304A18019B1074D05EBC1057A
:10563000EB8006494968491C044B596019460968C2
:10564000491E196000BFCDE72C4500206C51002099
:1056500010B504462046FBF73DF910BD0146087819
:105660007047014600BF0120704700000146044812
:10567000007B00F0040008B1481E70470846FCE7B4
:105680008051002070B504460D462946204600F0A2
:105690002FFA0646308870BD70B500241EE0FCF776
:1056A00073F8054604EBC40000EB04100D4951F8F3
:1056B0002000A84201D1204670BD04EBC40000EBDD
:1056C0000410084951F8200038B904EBC40000EB7D
:1056D000041041F820502046EEE7641C042CDEDB69
:1056E0000020E9E7E05100200549098819B1044983
:1056F000B1F9000002E00349B1F93C007047000035
:10570000C800002080510020014608B2014A5084A0
:105710000020704780510020014608B2014A908461
:10572000002070478051002010B5044611480068E1
:10573000A06411482061201DFCF741FF0F48A065BF
:105740000F48A0610C48206101202075FEF7FCFA8B
:10575000A087032084F85C006FF0704020636063D2
:105760000020FCF771FF6FF07F40FCF7A5FF0548B4
:10577000E06110BD180100208451002060CC0108B8
:1057800010CC010850CC01082DE9FC4107460D461C
:105790003846FBF7FFF80446A68B06F0020008B96E
:1057A000BDE8FC8140F601003040012800D1F7E758
:1057B0002846FEF7ADFD00B9F2E7224629466846C5
:1057C000FCF73BF86846FEF7A3FDB8B1207F00F078
:1057D000200030B16A4604F108010846FBF751FD8C
:1057E0000CE00098A0600198E060A08B40F02000E1
:1057F000A08303480088401C0149088000BFCFE710
:105800009E00002002468A4201DC1046704708468E
:10581000FCE70000F0B585B005460C460026207F69
:1058200000F0200000283BD0206940B3294604F155
:105830000800FEF7F0FB10B3ADF80C5004942846B6
:10584000FEF75AFB207F00F0040098B1A068019099
:10585000E0680290207F00F0010080F00107E08AFC
:1058600000B90027002303AA0F4901A80097FBF7FE
:10587000A3FA03E003A8FEF72FFD012600BFA08BCB
:1058800020F02000A083A08B00F4005018B1A08B62
:1058900040F00400A08305480088401E03490880AA
:1058A000304605B0F0BD0000A95B00089E00002056
:1058B000FEB505460C46A68B2069002835D006F0BB
:1058C000020090B319480078401C1849087006F48B
:1058D000805068B1ADF804500F20009004F108002A
:1058E0000290FEF753FB69462846FEF727FB16E0B9
:1058F00004F10800FEF718FC88B100BFADF80450B1
:105900000F20009004F108000290FEF73FFB69466B
:105910002846FEF713FBFEF7C3FB0028EED1034831
:105920000078401E0149087000BFFEBDC000002085
:105930002DE9F04105460C461649B1F93C00FBF74C
:1059400029F88046214608F10800FBF711FDF8B15F
:105950001048066C476C08F10802214604F1080063
:10596000FBF76BFF0C480580B4F900000949086497
:10597000B4F90200486421462846FFF799FF002049
:10598000054908800348066447640120BDE8F081AA
:105990000020FBE780510020C80000207CB50446B1
:1059A000207F00F0020030B3B4F9186021E03046E7
:1059B000FAF7F0FF0546287F00F00300032816D110
:1059C00004F108012846FBF7D3FC80B1A0680090E1
:1059D000E068019029463046FFF7AAFF10B128463B
:1059E000FFF7DCFF0098A0600198E06000BFB5F908
:1059F0001A60002EDBD17CBD2DE9F04106460C4635
:105A0000B4F91670B4F91A601CE011E03046FAF7E8
:105A1000C1FF0446207F00F00300032803D1214684
:105A20003046FFF785FF2046FFF7B8FFB4F91A604C
:105A3000002EEBD13846FAF7ADFF0546B5F91A60EE
:105A4000B5F91670002FE0D1BDE8F0817CB50446B1
:105A50000F48806B18B92046FCF714FE16E00C487E
:105A6000806B0168009140680190FFF73DFE06469B
:105A7000FAF790FF05466946FEF7C2FA21466846E6
:105A8000FBF7BAFE6846FCF7FDFD00BF7CBD0000D9
:105A9000805100202DE9F05F04460D46164610495E
:105AA000B1F94C00FAF776FF8046B8F9187029462C
:105AB000204600F01DF88146A9F800606FB1384615
:105AC000FAF768FF83463846FAF764FF80682A468B
:105AD0002146D0F800A05846D047BDE8F09F00000E
